:100000000C9462000C948A000C948A000C948A0070
:100010000C948A000C948A000C942F0F0C948A0084
:100020000C948A000C948A000C948A000C948A0028
:100030000C948A000C948A000C948A000C948A0018
:100040000C942F040C948A000C94FD030C94D70399
:100050000C948A000C948A000C948A000C948A00F8
:100060000C948A000C948A000000000023002600F3
:10007000290000000008000201000003040700003E
:1000800000000000000000000000250028002B00F8
:1000900000000000240027002A00040404040404D3
:1000A0000404020202020202030303030303010227
:1000B00004081020408001020408102001020408F6
:1000C00010204F1011241FBECFEFD8E0DEBFCDBFF0
:1000D00011E0A0E0B1E0E6EBF3E202C005900D9282
:1000E000A438B107D9F722E0A4E8B1E001C01D921D
:1000F000A33CB207E1F710E0C2E6D0E004C02197CC
:10010000FE010E94C311C136D107C9F70E94320F08
:100110000C94D9110C94000090E0FC01E255FF4FC3
:10012000249186569F4FFC018491882399F090E09A
:10013000880F991FFC01E057FF4FA591B491FC0176
:10014000EA57FF4F859194918FB7F894EC91E22B89
:10015000EC938FBF0895AF92BF92CF92DF92EF9250
:10016000FF920F931F93CF93DF936C017B018B0161
:10017000040F151FEB015E01AE18BF08C017D107B1
:1001800059F06991D601ED91FC910190F081E02D3B
:10019000C6010995892B79F7C501DF91CF911F9190
:1001A0000F91FF90EF90DF90CF90BF90AF900895A8
:1001B000FC01538D448D252F30E0842F90E0821B6D
:1001C000930B541710F0CF96089501970895FC01F2
:1001D000918D828D981761F0A28DAE0FBF2FB11D4A
:1001E0005D968C91928D9F5F9F73928F90E00895A2
:1001F0008FEF9FEF0895FC01918D828D981731F05C
:10020000828DE80FF11D858D90E008958FEF9FEFAF
:100210000895FC01918D228D892F90E0805C9F4F85
:10022000821B91098F739927089582E292E00E94C0
:10023000090121E0892B09F420E0822F08950E9412
:10024000150181110C940000089580E090E0892B45
:1002500011F00C941F010895FC01A48DA80FB92F73
:10026000B11DA35ABF4F2C91848D90E001968F73DE
:100270009927848FA689B7892C93A089B1898C91FD
:10028000837080648C93938D848D981306C002884C
:10029000F389E02D80818F7D80830895EF92FF9216
:1002A0000F931F93CF93DF93EC0181E0888F9B8D99
:1002B0008C8D98131AC0E889F989808185FF15C053
:1002C0009FB7F894EE89FF896083E889F989808176
:1002D0008370806480839FBF81E090E0DF91CF9145
:1002E0001F910F91FF90EF900895F62E0B8D10E067
:1002F0000F5F1F4F0F731127E02E8C8D8E110CC0D6
:100300000FB607FCFACFE889F989808185FFF5CF20
:10031000CE010E942C01F1CFEB8DEC0FFD2FF11DD2
:10032000E35AFF4FF0829FB7F8940B8FEA89FB895D
:1003300080818062CFCFCF93DF93EC01888D8823BB
:10034000B9F0AA89BB89E889F9898C9185FD03C038
:10035000808186FD0DC00FB607FCF7CF8C9185FF1D
:10036000F2CF808185FFEDCFCE010E942C01E9CF35
:10037000DF91CF910895833081F028F4813099F096
:100380008230A9F008958730A9F08830C9F0843010
:10039000B1F4809180008F7D03C0809180008F77C1
:1003A00080938000089584B58F7784BD089584B5C7
:1003B0008F7DFBCF8091B0008F778093B000089540
:1003C0008091B0008F7DF9CFCF93DF93282F30E05D
:1003D000F901EE58FF4F8491F901E255FF4FD49196
:1003E000F901E656FF4FC491CC23A1F081110E9480
:1003F000BB01EC2FF0E0EE0FFF1FE859FF4FA59176
:10040000B491EC91ED2381E090E009F480E0DF917C
:10041000CF91089580E090E0FACF1F93CF93DF93C0
:10042000282F30E0F901EE58FF4F8491F901E25591
:10043000FF4FD491F901E656FF4FC491CC23A9F0A8
:10044000162F81110E94BB01EC2FF0E0EE0FFF1F71
:10045000EA57FF4FA591B4918FB7F894EC91111121
:1004600008C0D095DE23DC938FBFDF91CF911F9121
:100470000895DE2BF8CF259A2D9A0895FC0101905E
:100480000020E9F73197AF01481B590BBC0182E20C
:1004900092E00C94AB008F929F92AF92BF92CF925A
:1004A000DF92EF92FF920F931F93CF93DF93CDB71D
:1004B000DEB7A1970FB6F894DEBF0FBECDBF6C01BB
:1004C000990FEE08FF08F7FE47C06DE282E292E066
:1004D0000E944E018C0122273327A9012C193D09C6
:1004E0004E095F0919A2CE0181967C019AE0892EFE
:1004F000912CA12CB12CCA01B901A50194010E9433
:10050000A111605DF70162937F012115310541055D
:10051000510589F790E080E0309719F0CF010E94F3
:100520003E02080F191F89E191E00E943E02800FF0
:10053000911FA1960FB6F894DEBF0FBECDBFDF911D
:10054000CF911F910F91FF90EF90DF90CF90BF90D0
:10055000AF909F908F900895A701960119A28E01E8
:100560000F5D1F4F8AE0C82ED12CE12CF12CCA015F
:10057000B901A70196010E94A111605DF801629383
:100580008F01211531054105510589F7309729F073
:10059000CF010E943E028C01C6CF10E000E0C3CF25
:1005A00087E00E948C00C1E087E00E94E401682F90
:1005B0006C2787E00E940D0280919601909197012F
:1005C000019690939701809396018CE191E00E94AF
:1005D0003E0280919601909197010E944B020E94E9
:1005E000620BE2CF88E00E948C00C1E088E00E94AC
:1005F000E401682F6C2788E00E940D02809194012D
:1006000090919501019690939501809394018DE2CC
:1006100091E00E943E0280919401909195010E9488
:100620004B020E94620B8091900190919101A091E8
:100630009201B09193010A97A105B105B8F280919A
:100640008E0190918F010E94700B60E087E00E9404
:100650000D02CCCF86E00E948C00C1E086E00E94B3
:10066000E401682F6C2786E00E940D0280919001C2
:1006700090919101A0919201B09193010196A11DD9
:10068000B11D8093900190939101A0939201B0933A
:10069000930180918C0190918D01019690938D0131
:1006A00080938C018CE391E00E943E0280918C014A
:1006B00090918D010E944B020E94620B80919001EB
:1006C00090919101A0919201B09193010C97A10595
:1006D000B10550F080918A0190918B010E94700BBE
:1006E00060E088E00E940D0280919001909191015C
:1006F000A0919201B09193010F97A105B10508F463
:10070000ADCF90E080E00E94700B60E086E00E9438
:100710000D02A4CF0F931F93E2E2F2E0A089B1890A
:1007200082E08C93A485B5851C92A685B7858FEC55
:100730008C93108EA489B58986E08C93A289B389A5
:100740008C9180618C93A289B3898C9188608C9301
:10075000A289B3898C9180688C930288F389E02DFB
:1007600080818F7D808308E811E021E040E850E03F
:100770006BE471E08AE293E00E940A0E0AE811E05D
:1007800021E040E850E068E571E082EF92E00E94ED
:100790000A0E0EE811E021E040E850E066E671E064
:1007A00080ED92E00E940A0E1F910F9108951F9212
:1007B0000F920FB60F9211242F933F934F935F9395
:1007C0006F937F938F939F93AF93BF93EF93FF9319
:1007D00082E292E00E942C01FF91EF91BF91AF91D4
:1007E0009F918F917F916F915F914F913F912F9149
:1007F0000F900FBE0F901F9018951F920F920FB67B
:100800000F9211242F938F939F93EF93FF93E09177
:100810003202F09133028081E0913802F091390286
:1008200082FD1BC0908180913B028F5F8F7320916E
:100830003C02821741F0E0913B02F0E0EE5DFD4F9B
:10084000958F80933B02FF91EF919F918F912F9114
:100850000F900FBE0F901F9018958081F4CF1F92BC
:100860000F920FB60F9211242F933F938F939F9364
:10087000AF93BF938091A5019091A601A091A7018C
:10088000B091A8013091A40123E0230F2D3758F532
:100890000196A11DB11D2093A4018093A501909301
:1008A000A601A093A701B093A8018091A001909107
:1008B000A101A091A201B091A3010196A11DB11DBA
:1008C0008093A0019093A101A093A201B093A301F2
:1008D000BF91AF919F918F913F912F910F900FBE3C
:1008E0000F901F90189526E8230F0296A11DB11DA9
:1008F000D2CFE091CB01F091CC018081811107C072
:100900008FEF9FEF9093C6018093C5010895E0910A
:10091000CB01F091CC010580F681E02D80819181A1
:10092000F1CFCF93DF93DC011596ED91FC9106801A
:10093000F781E02DA489B58986859785208931893D
:10094000EC013D832C83C089D1899B838A83CF01AD
:100950000C9611962D913C9112972817390721F486
:100960001296DC93CE931197158A148A2C912150FC
:100970002C9320919B01211157C0A285B3858481BE
:10098000958126813781EC013D832C83C681D781F7
:100990009B838A83CF01029611962D913C911297E9
:1009A0002817390721F41296DC93CE9311971386FA
:1009B00012862C9121502C93C68920911E022C174F
:1009C00010F4C0931E0229E02C9FE0011124C650B0
:1009D000DE4F0980DA81C02DD583C4834C815D81CF
:1009E00057834683AC81BD8113969C938E93129757
:1009F0009D838C83A689A29FD0011124A650BE4F4F
:100A0000B387A2878C918F5F8C93A0918401B09162
:100A10008501968956968C91891730F581E08093EF
:100A20009A01DF91CF910895A091E001B091E10189
:100A3000B787A68714962D913C911597318B208B03
:100A40001496CD91DC9115979B838A8315969C9380
:100A50008E9314978FED91E0958B848B8091DF01BD
:100A60008F5F8093DF01D1CF80E0DBCF0FB6F894AA
:100A70000F928091C3019091C4010F900FBE089511
:100A800080919B018F5F80939B0108950FB6F8942E
:100A90000F92FC01928D0F900FBE81E0911180E0CA
:100AA0000895EF92FF920F931F93CF93DF93EC0182
:100AB0000FB6F8940F921E8D7C0181E1E80EF11CB7
:100AC00001E01116D4F08FEF8E8F0F900FBE0FB68E
:100AD000F8940F921D8D7E0188E0E80EF11C01E074
:100AE0001116B4F08FEF8D8F0F900FBEDF91CF9165
:100AF0001F910F91FF90EF9008958989882319F332
:100B0000C7010E949104811100939A011150D9CF1D
:100B10008885882339F3C7010E94910481110093CD
:100B20009A011150DDCFCF93DF93FC01A085B185F1
:100B30008281938124813581EC013D832C83C481A2
:100B4000D5819B838A8311968D919C9112978E17E4
:100B50009F0721F41296DC93CE931197118610868D
:100B60008C9181508C938C91DF91CF9108950F934C
:100B70001F93CF93DF938C01FB0180819181D8017A
:100B800013968F3F9807F1F4E801AF81B88512966C
:100B90008D919C91139793838283EC01FD83EC8369
:100BA000B583A4831396FC93EE9312971187008765
:100BB000F80180818F5F8083DF91CF911F910F912A
:100BC0000895D90112962D913C911397E90148811E
:100BD000598184179507A8F7DACFFC0173836283E4
:100BE000918780874617570790F0421B530B8485E7
:100BF000958548175907C8F4BF016E5F7F4F8091F4
:100C0000A9019091AA010E94B70580E008954217BA
:100C1000530718F46217730740F4BF016E5F7F4FEC
:100C20008091AB019091AC01EECF81E00895EF92FD
:100C3000FF920F931F93CF93DF93EC018B017A0107
:100C40006C857D85600F711F9801A701CE010E9400
:100C5000ED05811107C0DF91CF911F910F91FF909A
:100C6000EF9008958C859D85080F191FE889F989F3
:100C7000CE010995E5CFEF92FF920F931F93CF938B
:100C8000DF938C017B01E091AB01F091AC01058019
:100C9000F681E02DC681D781CE0102960E94930590
:100CA0008A8982FF0FC0A701B801CE010E941706F2
:100CB000E889F989CE01DF91CF911F910F91FF90C3
:100CC000EF9009948E7F8A8BF3CFE091AB01F09186
:100CD000AC01808181110DC08091A9019091AA0180
:100CE0009093AC018093AB01F093AA01E093A9012A
:100CF00008950580F681E02D6FEF7FEF808191816F
:100D00000E943B06E2CFFF920F931F93CF93DF9396
:100D1000EC01F62E0091C3011091C4018091840171
:100D20009091850102960E949305CF3FDC07E9F57B
:100D3000FF20D9F1E091CE01F091CF01A091840183
:100D4000B09185011596FC93EE931497A0918401C0
:100D5000B09185018481958117969C938E93169707
:100D60008091840190918501A481B58102961396AA
:100D70009C938E93129780918401909185010296A5
:100D800095838483E0918401F09185018DEC91E05D
:100D9000938782878091CD018F5F8093CD01DF9112
:100DA000CF911F910F91FF900895C00FD11FE09137
:100DB0008401F0918501D383C28360918401709195
:100DC0008501C017D10768F48091C9019091CA01CB
:100DD0006E5F7F4FDF91CF911F910F91FF900C9429
:100DE000B7058091CB019091CC016E5F7F4F0E943F
:100DF000B7058091C5019091C601C817D90778F64B
:100E0000D093C601C093C501CACFFC01039692835B
:100E100081832FEF3FEF34832383968385839087ED
:100E20008783108208950F920FB6F8940F921F9245
:100E300011242F923F924F925F926F927F928F92E6
:100E40009F92AF92BF92CF92DF92EF92FF920F9359
:100E50001F932F933F934F935F936F937F938F9342
:100E60009F93AF93BF93CF93DF93EF93FF93A091A3
:100E70008401B09185010DB60D920EB60D9213BE90
:100E800080919B018111F9C08091C3019091C401AF
:100E900001969093C4018093C301009781F520913E
:100EA000CB013091CC014091C9015091CA015093BE
:100EB000CC014093CB013093CA012093C90120910A
:100EC0009F012F5F20939F01E091CB01F091CC0116
:100ED0002081211107C02FEF3FEF3093C6012093EF
:100EE000C5010DC0E091CB01F091CC010580F681E8
:100EF000E02D208131813093C6012093C5012091DE
:100F0000C5013091C6018217930710F420E0A1C0FB
:100F100020E039E0D32EE091CB01F091CC0130817B
:100F2000311107C08FEF9FEF9093C6018093C501E9
:100F300090C0E091CB01F091CC010580F681E02DCD
:100F40000680F781E02D428153818417950728F4AC
:100F50005093C6014093C5017CC0A285B3854481EE
:100F6000558166817781EA017D836C836681778113
:100F7000EB015B834A83AF014E5F5F4F11960D918A
:100F80001C9112970417150721F412967C936E9307
:100F90001197138612863C9131503C93A489B589F0
:100FA0001097F9F06685778500891189EB011D831B
:100FB0000C8300891189E8017B836A831196ED9087
:100FC000FC901297BF01645F7F4FE616F70621F48D
:100FD00012961C930E931197158A148A3C913150E6
:100FE0003C93A68930911E023A1710F4A0931E027A
:100FF000DA9ED0011124A650BE4F11960D90BC91DF
:10100000A02DB583A48314966D917C911597778359
:10101000668314966D917C911597EB015B834A83EF
:1010200015965C934E93149746894D9DD0011124DB
:10103000A650BE4FB387A2873C913F5F3C93E0919F
:101040008401F09185013689431708F464CF21E0CB
:1010500062CFE0918401F0918501E689D9E0ED9FAE
:10106000F0011124E650FE4F8081823008F021E02B
:1010700080919A0181110EC00AC0809198019091CF
:101080009901019690939901809398016AC0222357
:1010900009F467C080919B01882321F081E080934F
:1010A0009A015FC010929A01A0918401B0918501CC
:1010B000E0918401F09185012D913C918789908D7B
:1010C00082179307A8F08091840190918501809107
:1010D000840190918501259A2D9A2FEF87EA91E658
:1010E000215080409040E1F700C000001D9AF5CFEC
:1010F00020911E0289E001C02150422F50E0849FC0
:10110000F001859FF00D1124E650FE4F9081992348
:1011100099F3A181B28112960D90BC91A02DB2835A
:10112000A183289FC001112483509E4FA817B9079F
:1011300029F412968D919C919283818389E0849FFA
:10114000F001859FF00D1124E650FE4F0180F281E1
:10115000E02D86819781909385018093840120936F
:101160001E02A0918401B0918501CD91CDBFDD918A
:10117000DEBFFF91EF91DF91CF91BF91AF919F9132
:101180008F917F916F915F914F913F912F911F911F
:101190000F91FF90EF90DF90CF90BF90AF909F9016
:1011A0008F907F906F905F904F903F902F901F9007
:1011B0000F900FBE0F9008950F920FB6F8940F92F4
:1011C0001F9211242F923F924F925F926F927F92C3
:1011D0008F929F92AF92BF92CF92DF92EF92FF9247
:1011E0000F931F932F933F934F935F936F937F932F
:1011F0008F939F93AF93BF93CF93DF93EF93FF931F
:10120000A0918401B09185010DB60D920EB60D929C
:1012100080919B01882321F081E080939A015FC037
:1012200010929A01A0918401B0918501E09184010E
:10123000F09185012D913C918789908D82179307BC
:10124000A8F0809184019091850180918401909112
:101250008501259A2D9A2FEF87EA91E6215080404B
:101260009040E1F700C000001D9AF5CF20911E02CA
:1012700089E001C02150422F50E0849FF001859FFA
:10128000F00D1124E650FE4F9081992399F3A1812E
:10129000B28112960D90BC91A02DB283A183289F9C
:1012A000C001112483509E4FA817B90729F4129644
:1012B0008D919C919283818389E0849FF001859F29
:1012C000F00D1124E650FE4F0180F281E02D868161
:1012D0009781909385018093840120931E02A091B1
:1012E0008401B0918501CD91CDBFDD91DEBFFF912D
:1012F000EF91DF91CF91BF91AF919F918F917F91AE
:101300006F915F914F913F912F911F910F91FF909E
:10131000EF90DF90CF90BF90AF909F908F907F9095
:101320006F905F904F903F902F901F900F900FBE47
:101330000F9008958F929F92BF92CF92DF92EF927B
:10134000FF920F931F93CF93DF930FB6F8940F92F2
:1013500080919B01815080939B0180919B01882308
:1013600079F080E00F900FBEDF91CF911F910F9128
:10137000FF90EF90DF90CF90BF909F908F90089557
:1013800080912102882369F3E090E401F090E50167
:10139000F0E0E0E039E041E08091DF0181115EC0E2
:1013A000EF2B11F00E947904E0909801F0909901E0
:1013B000E114F10409F47DC189E0D82ECC24C39452
:1013C0000FEF1FEF80919B01811161C1C091C3019B
:1013D000D091C4014E018FEF881A980A9092C401EF
:1013E0008092C30181149104B9F48091CB01909152
:1013F000CC012091C9013091CA013093CC012093D6
:10140000CB019093CA018093C90180919F018F5FA6
:1014100080939F010E9479048091C5019091C6013B
:10142000B12C8816990608F026C1E0918401F0914C
:101430008501E689DE9EF0011124E650FE4F808191
:10144000823010F0BB24B39480919A01811103C0C3
:10145000BB2009F425C1C0929A0122C1D70116967A
:10146000ED91FC91A489B5896685778580899189FC
:10147000EB019D838C8380899189EC017B836A8356
:10148000BF01645F7F4F11960D911C911297061753
:10149000170721F412969C938E931197158A148A3C
:1014A0008C9181508C93A285B385848195816681CE
:1014B0007781EC017D836C8366817781EB019B836F
:1014C0008A83CF01029611960D911C9112970817ED
:1014D000190721F412967C936E9311971386128646
:1014E0002C9121502C93A68920911E022A1710F4CA
:1014F000A0931E023A9FD0011124A650BE4F119610
:101500000D90BC91A02DB583A48314966D917C9110
:1015100015977783668314966D917C911597EB01EF
:101520009B838A8315969C938E9314979689939F99
:10153000D0011124A650BE4FB387A2878C918F5F34
:101540008C93A0918401B091850156968C91981747
:1015500008F422CF40939A011FCFE091CB01F09184
:10156000CC010580F681E02D0680F781E02D828197
:1015700093818816990628F49093C6018093C5013B
:1015800054CFC285D3858481958126813781DC0142
:1015900015963C932E93149726813781D901139683
:1015A0009C938E931297CF01029649815A814817D6
:1015B000590711F43A832983138612862881215012
:1015C0002883A489B5891097F9F026853785408945
:1015D0005189E9015D834C8340895189EA013B834C
:1015E0002A8311966D917C9112979F01245F3F4F42
:1015F0006217730721F412965C934E931197158A24
:10160000148A2C9121502C93A68920911E022A170E
:1016100010F4A0931E02DA9ED0011124A650BE4FF2
:1016200011960D90BC91A02DB583A48314962D9195
:101630003C9115973783268314962D913C911597ED
:10164000E9019B838A8315969C938E9314979689C0
:101650009D9DD0011124A650BE4FB387A2878C91C7
:101660008F5F8C93E0918401F091850186899817B2
:1016700010F0BB24B394E091CB01F091CC018081B8
:1016800081116BCF1093C6010093C501CECE80911E
:1016900098019091990101969093990180939801F6
:1016A000D1E0ED1AF10809F08DCE10929901109257
:1016B000980180919A01882309F453CE0E94DC0896
:1016C00081E050CE0E94400560E084E690E00E94F8
:1016D00083060E949A09811102C00E94DC080895C5
:1016E0000F931F93CF93DF93EC010FB6F8940F92F3
:1016F000892B21F4C0918401D09185018E010E5F68
:101700001F4FC8010E9493058C899D89892B21F068
:10171000CE010C960E949305E091CE01F091CF018D
:10172000FD83EC83848195819F838E83A481B58121
:1017300013961C930E931297158304838DEC91E0FE
:101740009B878A878091CD018F5F8093CD018FA188
:10175000813009F41FA20F900FBE809120028823D0
:1017600039F00FB6F8940F920E9479040F900FBED3
:1017700080918401909185018C179D0731F48091AF
:101780002002882339F00E94DC08DF91CF911F915D
:101790000F9108959091CD0180912102981305C079
:1017A0001092850110928401F0CF80919B018823D3
:1017B00021F081E080939A01E8CF10929A01A091E4
:1017C0008401B0918501E0918401F09185012D9112
:1017D0003C918789908D82179307A8F080918401AE
:1017E0009091850180918401909185010E943B0236
:1017F0002FEF87EA91E6215080409040E1F700C04A
:1018000000001D9AF5CF20911E0289E0422F50E082
:10181000849FF001859FF00D1124E650FE4F9081CA
:10182000992349F1A181B28112960D90BC91A02D0E
:10183000B283A183289FC001112483509E4FA81713
:10184000B90729F412968D919C919283818389E046
:10185000849FF001859FF00D1124E650FE4F01801A
:10186000F281E02D86819781909385018093840198
:1018700020931E028ACF2150C9CFCF93DF930097C8
:1018800051F0EC010E944005CE010E941811DF9139
:10189000CF910C949A09DF91CF910895CF93DF9364
:1018A00000D000D01F92CDB7DEB7E091AB01F09130
:1018B000AC011081F12CE12C112329F00580F68177
:1018C000E02DE080F1800E9440050E9436056C0109
:1018D00080919D0190919E01C816D90608F085C09F
:1018E0000E946506D0929E01C0929D010E949A09B5
:1018F0000091C1011091C2010FB6F8940F92D80166
:101900005A96FC905A97FF2009F430C15C964C918E
:101910005C97442301F150E016968D919C911797A6
:10192000840F951F17969C938E93169714962D915E
:101930003C9115978217930738F08D919C911197E0
:1019400017969C938E931697F80166817781CE0146
:1019500001960E94C911FA94D8015A96FC925A979E
:1019600018968C91882339F0C80108960E9491043A
:1019700081110E94DC080F900FBED980D7FCB8CF30
:101980000C811D81D8011A968D919C91892B21F093
:10199000C80102960E9493050E9436057C01809141
:1019A0009D0190919E01E816F90610F40E946506CB
:1019B000F0929E01E0929D01EFEFED0DE93008F00D
:1019C00097CF0E2E000CFF0BE451F34FD801529627
:1019D0008C9152970C94C3116F0D6F0DB20D9A0D2F
:1019E000AC0D6F0D6F0DB20D9A0DD0929E01C0928D
:1019F0009D01112351F0CE14DF0470F00E949A096A
:101A0000B601C7010E943B0673CFE091A901F09196
:101A1000AA01808161E0811160E00091C101109113
:101A2000C2010FB6F8940F92D8015D968C915D9724
:101A30008F3F11F45D961C92F801868D8F3F09F45B
:101A4000168E0F900FBED8015A968C915A9781111D
:101A50003CC05296ED91FC91A0918401B09185011A
:101A60001F96FC93EE931E97A0918401B09185017F
:101A70008481958151969C938E9350978091840197
:101A800090918501A481B5810C9613969C938E93B9
:101A9000129780918401909185010C96958384839F
:101AA000E0918401F0918501C8014196958B848B6A
:101AB000F80181898F5F818BC7018C199D0966238D
:101AC00011F08FEF9FEF0E948306C8010E9451051D
:101AD0000E949A0981110CCF0E94DC0809CF816015
:101AE000F801828BCA80DB80648575856C0D7D1D55
:101AF0009601A701C8010E94ED05882309F4F8CEDC
:101B0000D80152968C91529782FF10C01C966D910D
:101B10007C916C0D7D1DA701C8010E941706D8019C
:101B20005096ED91FC91C8010995E2CE8E7FF801A7
:101B3000828BF5CF816052968C9352976A817B811C
:101B40001D967C936E931C976E0D7F1D9701A701C8
:101B5000C8010E94ED05CCCE81FD04C0C8010E94E1
:101B60003D0CC6CE8E7FF801828BC2CE0F900FBE89
:101B70009CCE00E010E080919C0181110CC080910E
:101B8000FA01823010F00E94DC080115110599F36A
:101B90000E941F01F0CF0FB6F8940F92E091DB0185
:101BA000F091DC01C681D781CE0102960E94930597
:101BB0008091210281508093210280919C0181506B
:101BC00080939C010F900FBE8F89988D0E943D0CD1
:101BD000CE010E943D0CCFCFCF93DF93EC010E944A
:101BE0004005CE010E947C10EC010E949A092097CA
:101BF00069F40E943B022FEF80E792E02150804081
:101C00009040E1F700C000001D9AF5CFCE01DF91B2
:101C1000CF9108957F928F929F92AF92BF92CF9271
:101C2000DF92EF92FF920F931F93CF93DF93982E43
:101C3000A92E762E872E7A01B22ECA010E94EC0DB3
:101C40006C01892B09F4EAC088E290E00E94EC0D57
:101C5000EC01892B09F4DFC088E2DE011D928A9530
:101C6000E9F7D88ECF8AA70165EA70E0C6010E9425
:101C7000D211B1E0EB1AF108EF89F88DEE0DFF1DDE
:101C8000672D782DCE0149969B01285F3F4FDB01E0
:101C90004D91BD01DC014D93CD01AB014150510986
:101CA000DA014C91442319F06217730781F718A2E7
:101CB000BE8AB9A21B861A861D8A1C8AD987C88744
:101CC00084E090E08B1991099D878C87DB8BCA8B10
:101CD0009082DF011197AC9211971C92119780E8C6
:101CE0008C9311971C9257971C9211971C92B39743
:101CF000F983E883F801D183C0830FB6F8940F927B
:101D0000809121028F5F80932102809184019091C4
:101D10008501892B09F091C0D0938501C09384017E
:101D200080912102813081F58AEF91E00E940507C0
:101D300083E092E00E9405078CE092E00E94050794
:101D400085E192E00E94050781EF91E00E9405077E
:101D500088EE91E00E9405078FED91E00E94050753
:101D600086ED91E00E9405078DEC91E00E94050749
:101D700081EF91E09093CC018093CB0188EE91E0CC
:101D80009093CA018093C90180911F028F5F809355
:101D90001F02AE8980911E028A1710F4A0931E02C2
:101DA00029E02A9FD0011124A650BE4F11960D9014
:101DB000BC91A02DBD83AC8314968D919C911597F9
:101DC0009F838E831496ED91FC911597CE01029618
:101DD0009383828315969C938E931497EE89E29F4A
:101DE000F0011124E650FE4FFB87EA8780818F5F68
:101DF00080830F900FBE80912002882351F0E091E4
:101E00008401F091850196898E89981710F40E94BB
:101E1000DC0881E004C0C6010E943D0C8FEFDF9119
:101E2000CF911F910F91FF90EF90DF90CF90BF90D7
:101E3000AF909F908F907F900895809120028111A4
:101E4000A3CFE0918401F091850196898E8989174D
:101E500008F49ACFD0938501C093840195CF0E9456
:101E600013071895789484B5826084BD84B5816029
:101E700084BD85B5826085BD85B5816085BD809155
:101E80006E00816080936E001092810080918100CD
:101E900082608093810080918100816080938100C5
:101EA000809180008160809380008091B100846087
:101EB0008093B1008091B00081608093B0008091E8
:101EC0007A00846080937A0080917A0082608093A7
:101ED0007A0080917A00816080937A0080917A0004
:101EE000806880937A001092C100209105013091A2
:101EF00006018FEF98E0821B930B90930201809371
:101F000001010E948A0307EC11E020E040EC50E060
:101F100066E771E089EB9DE00E940A0E813009F0CE
:101F2000B3C00FB6F8940F928091C1019091C20195
:101F3000892B09F04FC086EB91E00E9405078DEADE
:101F400091E00E94050786EB91E09093AC018093AD
:101F5000AB018DEA91E09093AA018093A90181E5FC
:101F600090E00E94EC0DEC01009781F14F9699836F
:101F700088838AE08B8F85E08C8F0FB6F8940F9260
:101F8000888199812B8D4C8DBC01249F600D711D22
:101F900011247D836C831A8E9B838A832150330B9B
:101FA000429FB001439F700D1124860F971F9F839E
:101FB0008E838FEF8D8F8E8FCE0108960E9405073E
:101FC000CE0141960E9405070F900FBED093C2012B
:101FD000C093C1010F900FBE8091C1019091C201C9
:101FE000892B09F451C00FEB11E023E045E550E0E7
:101FF0006BE771E08EE49CE00E940A0E813009F0EC
:1020000043C0F8942FEF3FEF3093C6012093C501F2
:10201000809320021092C4011092C301A89588E118
:1020200090EC0FB6F894A895809360000FBE909343
:102030006000A0918401B0918501CD91CDBFDD916B
:10204000DEBFFF91EF91DF91CF91BF91AF919F9153
:102050008F917F916F915F914F913F912F911F9140
:102060000F91FF90EF90DF90CF90BF90AF909F9037
:102070008F907F906F905F904F903F902F901F9028
:102080000F900FBE0F900895809100010E948A0367
:10209000C0E0D0E02097F1F30E941F01FBCFE2E205
:1020A000F2E01382128288EE93E0A0E0B0E0848335
:1020B0009583A683B7838BE091E09183808385EC41
:1020C00090E09587848784EC90E09787868780EC02
:1020D00090E0918B808B81EC90E0938B828B82ECF3
:1020E00090E0958B848B86EC90E0978B868B118E9D
:1020F000128E138E148E08950F931F93CF93DF9338
:102100008230910510F482E090E0E091C102F091FC
:10211000C20230E020E0B0E0A0E0309799F4211551
:10212000310509F44AC0281B390B24303105D8F594
:102130008A819B816115710589F1FB0193838283FB
:10214000FE0111C040815181028113814817590756
:10215000E0F04817590799F4109761F012960C9324
:10216000129713961C933296CF01DF91CF911F9156
:102170000F9108950093C1021093C202F4CF21156C
:10218000310551F04217530738F0A901DB019A01DC
:10219000BD01DF01F801C1CFEF01F9CF9093C20279
:1021A0008093C102CDCFFE01E20FF31F8193919383
:1021B0002250310939832883D7CF2091BF02309133
:1021C000C002232B41F4209103013091040130938C
:1021D000C0022093BF02209101013091020121151C
:1021E000310541F42DB73EB74091050150910601EC
:1021F000241B350BE091BF02F091C002E217F307F8
:10220000A0F42E1B3F0B2817390778F0AC014E5F66
:102210005F4F2417350748F04E0F5F1F5093C002E1
:102220004093BF02819391939FCFF0E0E0E09CCF79
:10223000CF93DF930097E9F0FC013297138212826B
:10224000A091C102B091C202ED0130E020E01097F0
:10225000A1F420813181820F931F2091BF02309120
:10226000C0022817390709F061C0F093C002E0935B
:10227000BF02DF91CF910895EA01CE17DF07E8F59D
:102280004A815B819E0141155105B1F7E901FB834C
:10229000EA8349915991C40FD51FEC17FD0761F4EA
:1022A000808191810296840F951FE901998388832B
:1022B000828193819B838A83F0E0E0E012968D9186
:1022C0009C9113970097B9F52D913C911197CD01F1
:1022D0000296820F931F2091BF023091C0022817EF
:1022E000390739F6309751F51092C2021092C102A7
:1022F000B093C002A093BF02BCCFD383C2834081FE
:102300005181840F951FC817D90761F44E5F5F4F45
:1023100088819981480F591F518340838A819B810D
:10232000938382832115310509F0B0CFF093C20267
:10233000E093C1029ECFFD01DC01C0CF1382128267
:10234000D7CFA1E21A2EAA1BBB1BFD010DC0AA1FED
:10235000BB1FEE1FFF1FA217B307E407F50720F00E
:10236000A21BB30BE40BF50B661F771F881F991F89
:102370001A9469F760957095809590959B01AC01D2
:10238000BD01CF010895EE0FFF1F0590F491E02DE0
:102390000994FB01DC0102C001900D9241505040B4
:1023A000D8F70895DC0101C06D9341505040E0F72B
:0623B0000895F894FFCF30
:1023B600030000C3028000000000004E01AB00D8FD
:1023C600009B010901E700FB000D0A0059656C6CD2
:1023D6006F772052756E2054696D652000426C75CA
:1023E600652052756E2054696D6520005265642023
:1023F60052756E2054696D653A2000524544204C52
:102406004544205461736B00424C5545204C45446D
:10241600205461736B0059454C4C4F57204C454432
:10242600205461736B0049444C4500546D7220532F
:0424360076630000C9
:00000001FF
