:020000040000FA
:100000000C945D000C9485000C9485000C94850084
:100010000C9485000C9485000C94DC0F0C948500E6
:100020000C9485000C9485000C9485000C9485003C
:100030000C9485000C9485000C9485000C9485002C
:100040000C94F5030C9485000C94C3030C949D034D
:100050000C9485000C9485000C9485000C9485000C
:100060000C9485000C9485000000000024002700FB
:100070002A0000000000250028002B0004040404CE
:100080000404040402020202020203030303030342
:10009000010204081020408001020408102001021F
:1000A00004081020000000080002010000030407FB
:1000B0000000000000000000DF1011241FBECFEF81
:1000C000D8E0DEBFCDBF11E0A0E0B1E0E6EDF4E2A4
:1000D00002C005900D92AC3AB107D9F722E0ACEA24
:1000E000B1E001C01D92AD3DB207E1F710E0CDE5F2
:1000F000D0E004C02197FE010E945312CC35D107F5
:10010000C9F70E94DF0F0C9469120C940000EAEA10
:10011000F0E02491E6E9F0E09491E2E8F0E0E49187
:10012000EE23C9F0222339F0233001F1A8F4213065
:1001300019F1223029F1F0E0EE0FFF1FEE58FF4FCA
:10014000A591B4912FB7F894EC91811126C09095A8
:100150009E239C932FBF08952730A9F02830C9F023
:10016000243049F7209180002F7D03C0209180002A
:100170002F7720938000DFCF24B52F7724BDDBCFEE
:1001800024B52F7DFBCF2091B0002F772093B000B6
:10019000D2CF2091B0002F7DF9CF9E2BDACFE6E9A8
:1001A000F0E02491E2E8F0E08491882399F090E077
:1001B000880F991FFC01E859FF4FA591B491FC01EC
:1001C000EE58FF4F859194918FB7F894EC91E22B04
:1001D000EC938FBF0895AF92BF92CF92DF92EF92D0
:1001E000FF920F931F93CF93DF936C017B018B01E1
:1001F000040F151FEB015E01AE18BF08C017D10731
:1002000059F06991D601ED91FC910190F081E02DBA
:10021000C6010995892B79F7C501DF91CF911F910F
:100220000F91FF90EF90DF90CF90BF90AF90089527
:10023000FC01538D448D252F30E0842F90E0821BEC
:10024000930B541710F0CF96089501970895FC0171
:10025000918D828D981761F0A28DAE0FBF2FB11DC9
:100260005D968C91928D9F5F9F73928F90E0089521
:100270008FEF9FEF0895FC01918D828D981731F0DB
:10028000828DE80FF11D858D90E008958FEF9FEF2F
:100290000895FC01918D228D892F90E0805C9F4F05
:1002A000821B91098F73992708958CE392E00E9435
:1002B000490121E0892B09F420E0822F08950E9452
:1002C000550181110C940000089580E090E0892B85
:1002D00011F00C945F010895FC01A48DA80FB92FB3
:1002E000B11DA35ABF4F2C91848D90E001968F735E
:1002F0009927848FA689B7892C93A089B1898C917D
:10030000837080648C93938D848D981306C00288CB
:10031000F389E02D80818F7D80830895EF92FF9295
:100320000F931F93CF93DF93EC0181E0888F9B8D18
:100330008C8D98131AC0E889F989808185FF15C0D2
:100340009FB7F894EE89FF896083E889F9898081F5
:100350008370806480839FBF81E090E0DF91CF91C4
:100360001F910F91FF90EF900895F62E0B8D10E0E6
:100370000F5F1F4F0F731127E02E8C8D8E110CC055
:100380000FB607FCFACFE889F989808185FFF5CFA0
:10039000CE010E946C01F1CFEB8DEC0FFD2FF11D12
:1003A000E35AFF4FF0829FB7F8940B8FEA89FB89DD
:1003B00080818062CFCFCF93DF93EC01888D88233B
:1003C000B9F0AA89BB89E889F9898C9185FD03C0B8
:1003D000808186FD0DC00FB607FCF7CF8C9185FF9D
:1003E000F2CF808185FFEDCFCE010E946C01E9CF75
:1003F000DF91CF910895FC0101900020E9F731973A
:10040000AF01481B590BBC018CE392E00C94EB004C
:10041000CF93DF93CDB7DEB7A5970FB6F894DEBFC5
:100420000FBECDBF0E94CF008AE0882E912CA12C58
:10043000B12C46E050E0BE016E5D7F4F8091B0016F
:100440009091B1010E949D0A813009F04AC089E172
:1004500091E00E94FB01CAA0DBA0ECA0FDA0F7FE8A
:100460002AC06DE28CE392E00E948E01222733279E
:10047000A9012C193D094E095F0919A2CE018196E7
:100480007C01CA01B901A50194010E943112605D8D
:10049000F70162937F01211531054105510589F767
:1004A000C701EF2801F588E391E00E94FB0180E09D
:1004B0000E948700BECFA701960119A2CE018196A6
:1004C0007C01CA01B901A50194010E943112605D4D
:1004D000F70162937F01211531054105510589F727
:1004E000DFCF8BE391E00E94FB01DDCFCF93DF9361
:1004F000CDB7DEB729970FB6F894DEBF0FBECDBFDC
:100500008C010E94CF00012E000C220B330B0983BB
:100510001A832B833C830091B0011091B10119869D
:10052000188680E0780198E0E90EF11C0FB6F89487
:100530000F92F801228D938D291700F5828DBE014F
:100540006F5F7F4FC8010E94CA06F801278D30A156
:10055000232B61F0C8010E94600781110E941708D7
:100560000F900FBE81E00E948700D5CF918999231B
:10057000A1F3C80141960E948A04EFCF28853985EE
:10058000232B59F40F900FBE88E591E00E94FB01E8
:1005900088E391E00E94FB01E5CF811109C08091C1
:1005A000D2018D8380911002909111029F838E83DE
:1005B0000F900FBE0E9439050FB6F8940F92F80104
:1005C000858D8F3F09F4158EF801868D8F3F09F4D4
:1005D000168E0F900FBEBE01685F7F4FCE0105964D
:1005E0000E94570481112AC00FB6F8940F92F801A7
:1005F000928D838D0F900FBE98131AC0C884D98432
:100600006091AC017091AD01645F7F4FC7010E94A2
:100610006E0561E0C6010E943A06C8010E949D076E
:100620000E94D508811102C00E94170881E07ECF88
:10063000C8010E949D070E94D508F8CFC8010E94FA
:100640009D070E94D508A0CFEF92FF920F93CF9302
:10065000DF93E0914C02F0914D0282E08083E091C3
:100660004802F09149021082E0914A02F0914B0257
:100670008FEC808310925402E0915002F09151026D
:1006800086E08083E0914E02F0914F02808180618C
:100690008083E0914E02F0914F02808188608083D8
:1006A000E0914E02F0914F02808180688083E0915A
:1006B0004E02F0914F0280818F7D808385E390E030
:1006C0000E94910EEC01009761F0819699838883D6
:1006D00085E08B8F84E08C8FCE010E94E70718A203
:1006E0001F8ED093B101C093B001F12CE12C01E039
:1006F0002FEC37E044E650E064E771E086E792E0F3
:100700000E94AF0E23EE37E044E650E062E871E06D
:1007100086E792E00E94AF0E02E030E020E044E67F
:1007200050E060E971E088E092E00E94AF0EDF9156
:10073000CF910F91FF90EF9008951F920F920FB6F7
:100740000F9211242F933F934F935F936F937F9357
:100750008F939F93AF93BF93EF93FF938CE392E0BC
:100760000E946C01FF91EF91BF91AF919F918F918A
:100770007F916F915F914F913F912F910F900FBE9D
:100780000F901F9018951F920F920FB60F92112481
:100790002F938F939F93EF93FF93E0914C02F091EF
:1007A0004D028081E0915202F091530282FD1BC004
:1007B0009081809155028F5F8F732091560282172E
:1007C00041F0E0915502F0E0E45CFD4F958F80939D
:1007D0005502FF91EF919F918F912F910F900FBE36
:1007E0000F901F9018958081F4CF1F920F920FB633
:1007F0000F9211242F933F938F939F93AF93BF93A7
:100800008091F2019091F301A091F401B091F50172
:100810003091F10123E0230F2D3758F50196A11DEA
:10082000B11D2093F1018093F2019093F301A09305
:10083000F401B093F5018091ED019091EE01A0914A
:10084000EF01B091F0010196A11DB11D8093ED0162
:100850009093EE01A093EF01B093F001BF91AF919F
:100860009F918F913F912F910F900FBE0F901F90EE
:10087000189526E8230F0296A11DB11DD2CFE09155
:10088000E701F091E8018081811107C08FEF9FEFB0
:1008900090931402809313020895E091E701F09180
:1008A000E8010580F681E02D80819181F1CFFC0186
:1008B000DB010FB6F8940F92409110025091110293
:1008C0002D913C9111972F3F320711F18181928137
:1008D0006091D2017081761749F04817590730F0BE
:1008E0001D921C9281E00F900FBE0895481B590B7A
:1008F00042175307A8F7241B350B2D933C93809187
:10090000D2018083809110029091110292838183A1
:1009100080E0E9CFCF93DF93DC011596ED91FC9158
:100920000680F781E02DA489B58986859785208981
:100930003189EC013D832C83C089D1899B838A83D3
:10094000CF010C9611962D913C91129728173907DB
:1009500021F41296DC93CE931197158A148A2C9168
:1009600021502C932091D101211157C0A285B3852C
:100970008481958126813781EC013D832C83C6815A
:10098000D7819B838A83CF01029611962D913C914A
:1009900012972817390721F41296DC93CE931197FA
:1009A000138612862C9121502C93C68920913B02EC
:1009B0002C1710F4C0933B0229E02C9FE001112476
:1009C000C95EDD4F0980DA81C02DD583C4834C8197
:1009D0005D8157834683AC81BD8113969C938E9332
:1009E00012979D838C83A689A29FD0011124A95EB2
:1009F000BD4FB387A2878C918F5F8C93A091AC0180
:100A0000B091AD01968956968C91891730F581E0A9
:100A10008093C701DF91CF910895A091C901B09152
:100A2000CA01B787A68714962D913C911597318BF3
:100A3000208B1496CD91DC9115979B838A83159614
:100A40009C938E93149788EC91E0958B848B809186
:100A5000C8018F5F8093C801D1CF80E0DBCF0FB694
:100A6000F8940F9280911002909111020F900FBE96
:100A700008958091D1018F5F8093D10108950FB6C1
:100A8000F8940F92FC01928D0F900FBE81E09111AE
:100A900080E00895CF93DF93FC01A085B18582812A
:100AA000938124813581EC013D832C83C481D581E0
:100AB0009B838A8311968D919C9112978E179F0725
:100AC00021F41296DC93CE931197118610868C91A7
:100AD00081508C938C91DF91CF9108950F931F9348
:100AE000CF93DF938C01FB0180819181D801139614
:100AF0008F3F9807F1F4E801AF81B88512968D9188
:100B00009C91139793838283EC01FD83EC83B583DF
:100B1000A4831396FC93EE93129711870087F80134
:100B200080818F5F8083DF91CF911F910F91089516
:100B3000D90112962D913C911397E9014881598171
:100B400084179507A8F7DACFFC0173836283918736
:100B500080874617570790F0421B530B8485958575
:100B600048175907C8F4BF016E5F7F4F8091F601A7
:100B70009091F7010E946E0580E008954217530797
:100B800018F46217730740F4BF016E5F7F4F8091C6
:100B9000F8019091F901EECF81E00895EF92FF9274
:100BA0000F931F93CF93DF93EC018B017A016C8538
:100BB0007D85600F711F9801A701CE010E94A405D9
:100BC000811107C0DF91CF911F910F91FF90EF909E
:100BD00008958C859D85080F191FE889F989CE0134
:100BE0000995E5CFEF92FF920F931F93CF93DF9379
:100BF0008C017B01E091F801F091F9010580F6810B
:100C0000E02DC681D781CE0102960E944A058A89CD
:100C100082FF0FC0A701B801CE010E94CE05E8896E
:100C2000F989CE01DF91CF911F910F91FF90EF9045
:100C300009948E7F8A8BF3CFE091F801F091F9014E
:100C4000808181110DC08091F6019091F701909300
:100C5000F9018093F801F093F701E093F60108950C
:100C60000580F681E02D6FEF7FEF808191810E94FA
:100C7000F205E2CFFF920F931F93CF93DF93EC0126
:100C8000F62E00911002109111028091AC0190910A
:100C9000AD0102960E944A05CF3FDC07E9F5FF202F
:100CA000D9F1E091DF01F091E001A091AC01B091A8
:100CB000AD011596FC93EE931497A091AC01B09101
:100CC000AD018481958117969C938E9316978091A0
:100CD000AC019091AD01A481B581029613969C93CD
:100CE0008E9312978091AC019091AD0102969583FD
:100CF0008483E091AC01F091AD018EED91E093879A
:100D000082878091DE018F5F8093DE01DF91CF913A
:100D10001F910F91FF900895C00FD11FE091AC017A
:100D2000F091AD01D383C2836091AC017091AD01AC
:100D3000C017D10768F48091E9019091EA016E5FD4
:100D40007F4FDF91CF911F910F91FF900C946E0513
:100D50008091E7019091E8016E5F7F4F0E946E05E0
:100D60008091130290911402C817D90778F6D09396
:100D70001402C0931302CACFFC01039692838183AD
:100D80002FEF3FEF34832383968385839087878378
:100D900010820895CF92DF92FF920F931F93CF930B
:100DA000DF93EC01FA8C4C8D411172C088819981DE
:100DB000892B11F080E008C00C811D8101151105FF
:100DC00069F480E01D821C82F394FA8EDF91CF914A
:100DD0001F910F91FF90DF90CF900895D8019296C8
:100DE0008C919297815092968C93929756962C91D3
:100DF000569791969C91291721F38111E2CF6801B2
:100E0000B2E0CB0ED11CC6010E944A05F80181A1B7
:100E1000868B482F50E024E030E0241B350B3587CB
:100E2000248790913B02981710F480933B0289E04D
:100E3000849FD001859FB00D1124A95EBD4F1196EE
:100E40000D90BC91A02DF801B583A48314962D912B
:100E50003C911597378326831496ED91FC91159755
:100E6000D382C2821596DC92CE921497D801569600
:100E7000EC915697E89FF0011124E95EFD4F1B9617
:100E8000FC93EE931A9780818F5F808381E09ACFE5
:100E900050E08A819B810E9459128C8D2A813B816E
:100EA000820F932F911D9B838A832C813D81821712
:100EB000930708F47FCF888199819B838A837ACFB7
:100EC000EF92FF920F931F93CF93DF9300D0CDB794
:100ED000DEB79A838983FC01078D10A1F801928DFA
:100EE000838DE12C9817B8F4F68CBE016F5F7F4FAD
:100EF000C8010E94CA06E82EFFEFFF1216C0F801D3
:100F00008189882341F0C80141960E948A04882380
:100F100011F0EE24E3948E2D0F900F90DF91CF917E
:100F20001F910F91FF90EF9008958091D401F816D2
:100F300090F7F394F801F68EEECFEF92FF920F93B5
:100F40001F93CF93DF93EC010FB6F8940F921E8D91
:100F50007C0181E1E80EF11C01E01116D4F08FEF65
:100F60008E8F0F900FBE0FB6F8940F921D8D7E01DD
:100F700088E0E80EF11C01E01116F4F08FEF8D8F80
:100F80000F900FBEDF91CF911F910F91FF90EF90C7
:100F900008958F8D98A1892B41F0CE010E946007A2
:100FA00081110093C7011150D8CF89898823B9F2E4
:100FB000C7010E948A04F4CF88858823F9F2C7010B
:100FC0000E948A0481110093C7011150D5CFCF939D
:100FD000DF93EC010FB6F8940F92888199812B8DE5
:100FE0004C8DBC01249F600D711D11247D836C8389
:100FF0001A8E9B838A832150330B429FB001439FFB
:10100000700D1124860F971F9F838E838FEF8D8F16
:101010008E8FCE0108960E94BC06CE0141960E949A
:10102000BC060F900FBE81E0DF91CF9108950F9223
:101030000FB6F8940F921F9211242F923F924F9265
:101040005F926F927F928F929F92AF92BF92CF9258
:10105000DF92EF92FF920F931F932F933F934F9343
:101060005F936F937F938F939F93AF93BF93CF9330
:10107000DF93EF93FF93A091AC01B091AD010DB65A
:101080000D920EB60D928091D101882321F081E05E
:101090008093C7015FC01092C701A091AC01B091CD
:1010A000AD01E091AC01F091AD012D913C918789AA
:1010B000908D82179307A8F08091AC019091AD01BB
:1010C0008091AC019091AD01259A2D9A2FEF87EA7E
:1010D00091E6215080409040E1F700C000001D9A49
:1010E000F5CF20913B0289E001C02150422F50E012
:1010F000849FF001859FF00D1124E95EFD4F9081E2
:10110000992399F3A181B28112960D90BC91A02DE3
:10111000B283A183289FC0011124865E9D4FA8172A
:10112000B90729F412968D919C919283818389E06D
:10113000849FF001859FF00D1124E95EFD4F018031
:10114000F281E02D868197819093AD018093AC016F
:1011500020933B02A091AC01B091AD01CD91CDBFE8
:10116000DD91DEBFFF91EF91DF91CF91BF91AF9104
:101170009F918F917F916F915F914F913F912F91AF
:101180001F910F91FF90EF90DF90CF90BF90AF90A5
:101190009F908F907F906F905F904F903F902F9097
:1011A0001F900F900FBE0F9008958F929F92BF9245
:1011B000CF92DF92EF92FF920F931F93CF93DF9323
:1011C0000FB6F8940F928091D10181508093D10194
:1011D0008091D101882379F080E00F900FBEDF91DC
:1011E000CF911F910F91FF90EF90DF90CF90BF9024
:1011F0009F908F9008958091D401882369F3E090A7
:10120000CD01F090CE01F0E0E0E039E041E08091E6
:10121000C80181115EC0EF2B11F00E943F04E090E5
:10122000C501F090C601E114F10409F47DC189E023
:10123000D82ECC24C3940FEF1FEF8091D1018111E0
:1012400061C1C0911002D09111024E018FEF881A36
:10125000980A909211028092100281149104B9F4BC
:101260008091E7019091E8012091E9013091EA0134
:101270003093E8012093E7019093EA018093E9011C
:101280008091D2018F5F8093D2010E943F048091B0
:10129000130290911402B12C8816990608F026C109
:1012A000E091AC01F091AD01E689DE9EF0011124E0
:1012B000E95EFD4F8081823010F0BB24B3948091B1
:1012C000C701811103C0BB2009F425C1C092C70129
:1012D00022C1D7011696ED91FC91A489B589668546
:1012E000778580899189EB019D838C8380899189A1
:1012F000EC017B836A83BF01645F7F4F11960D9180
:101300001C9112970617170721F412969C938E933F
:101310001197158A148A8C9181508C93A285B3857C
:101320008481958166817781EC017D836C83668100
:101330007781EB019B838A83CF01029611960D91F1
:101340001C9112970817190721F412967C936E933B
:101350001197138612862C9121502C93A6892091E7
:101360003B022A1710F4A0933B023A9FD0011124AC
:10137000A95EBD4F11960D90BC91A02DB583A4839D
:1013800014966D917C9115977783668314966D9171
:101390007C911597EB019B838A8315969C938E9382
:1013A00014979689939FD0011124A95EBD4FB387EE
:1013B000A2878C918F5F8C93A091AC01B091AD010D
:1013C00056968C91981708F422CF4093C7011FCFEF
:1013D000E091E701F091E8010580F681E02D0680BB
:1013E000F781E02D828193818816990628F49093E5
:1013F00014028093130254CFC285D38584819581D2
:1014000026813781DC0115963C932E931497268113
:101410003781D90113969C938E931297CF01029630
:1014200049815A814817590711F43A832983138651
:101430001286288121502883A489B5891097F9F054
:101440002685378540895189E9015D834C83408930
:101450005189EA013B832A8311966D917C91129701
:101460009F01245F3F4F6217730721F412965C932C
:101470004E931197158A148A2C9121502C93A6898A
:1014800020913B022A1710F4A0933B02DA9ED00170
:101490001124A95EBD4F11960D90BC91A02DB5836E
:1014A000A48314962D913C91159737832683149627
:1014B0002D913C911597E9019B838A8315969C9306
:1014C0008E93149796899D9DD0011124A95EBD4FDE
:1014D000B387A2878C918F5F8C93E091AC01F091E0
:1014E000AD018689981710F0BB24B394E091E70111
:1014F000F091E801808181116BCF10931402009369
:101500001302CECE8091C5019091C60101969093B1
:10151000C6018093C501D1E0ED1AF10809F08DCE26
:101520001092C6011092C5018091C701882309F469
:1015300053CE0E94170881E050CEAF92BF92CF9257
:10154000DF92EF92FF920F931F93CF93DF9300D020
:1015500000D01F92CDB7DEB78C016B015D834C8349
:1015600080E0580191E1A90EB11C0FB6F8940F92DA
:10157000F801F28CFF20C9F1448D4423B1F050E012
:1015800086819781840F951F978386832481358177
:101590008217930720F08081918197838683F801D9
:1015A00066817781C6010E945912FA94F801F28E81
:1015B0008085882339F0C80108960E948A04811129
:1015C0000E9417080F900FBE81E00F900F900F90B0
:1015D0000F900F90DF91CF911F910F91FF90EF909F
:1015E000DF90CF90BF90AF9008952C813D81232B49
:1015F00021F40F900FBE80E0E8CF811109C08091E7
:10160000D201898380911002909111029B838A8379
:101610000F900FBE0E9439050FB6F8940F92F80193
:10162000858D8F3F09F4158EF801868D8F3F09F463
:10163000168E0F900FBEBE016C5F7F4FCE010196DC
:101640000E945704811125C0C8010E943F058823CC
:10165000D1F0EC80FD806091AC017091AD01645FD0
:101660007F4FC5010E946E0561E0C7010E943A06E6
:10167000C8010E949D070E94D508811102C00E94E6
:10168000170881E072CFC8010E949D070E94D5080B
:10169000F8CFC8010E949D070E94D508C8010E948A
:1016A0003F05882371F3A7CF0F920FB6F8940F92DE
:1016B0001F9211242F923F924F925F926F927F92CE
:1016C0008F929F92AF92BF92CF92DF92EF92FF9252
:1016D0000F931F932F933F934F935F936F937F933A
:1016E0008F939F93AF93BF93CF93DF93EF93FF932A
:1016F000A091AC01B091AD010DB60D920EB60D9258
:1017000013BE8091D1018111F9C080911002909196
:10171000110201969093110280931002009781F5B7
:101720002091E7013091E8014091E9015091EA01EF
:101730005093E8014093E7013093EA012093E901D7
:101740002091D2012F5F2093D201E091E701F09127
:10175000E8012081211107C02FEF3FEF30931402E1
:10176000209313020DC0E091E701F091E80105809C
:10177000F681E02D208131813093140220931302F1
:1017800020911302309114028217930710F420E085
:10179000A1C020E039E0D32EE091E701F091E8010B
:1017A0003081311107C08FEF9FEF90931402809327
:1017B000130290C0E091E701F091E8010580F68105
:1017C000E02D0680F781E02D428153818417950733
:1017D00028F450931402409313027CC0A285B38571
:1017E0004481558166817781EA017D836C836681BE
:1017F0007781EB015B834A83AF014E5F5F4F1196A8
:101800000D911C9112970417150721F412967C93E1
:101810006E931197138612863C9131503C93A489A4
:10182000B5891097F9F06685778500891189EB01F4
:101830001D830C8300891189E8017B836A831196DB
:10184000ED90FC901297BF01645F7F4FE616F7069C
:1018500021F412961C930E931197158A148A3C91C9
:1018600031503C93A68930913B023A1710F4A09373
:101870003B02DA9ED0011124A95EBD4F11960D9056
:10188000BC91A02DB583A48314966D917C9115977E
:101890007783668314966D917C911597EB015B833A
:1018A0004A8315965C934E93149746894D9DD001BB
:1018B0001124A95EBD4FB387A2873C913F5F3C9343
:1018C000E091AC01F091AD013689431708F464CF83
:1018D00021E062CFE091AC01F091AD01E689D9E061
:1018E000ED9FF0011124E95EFD4F8081823008F008
:1018F00021E08091C70181110EC00AC08091C5010D
:101900009091C60101969093C6018093C5016AC06B
:10191000222309F467C08091D101882321F081E05E
:101920008093C7015FC01092C701A091AC01B09134
:10193000AD01E091AC01F091AD012D913C91878911
:10194000908D82179307A8F08091AC019091AD0122
:101950008091AC019091AD01259A2D9A2FEF87EAE5
:1019600091E6215080409040E1F700C000001D9AB0
:10197000F5CF20913B0289E001C02150422F50E079
:10198000849FF001859FF00D1124E95EFD4F908149
:10199000992399F3A181B28112960D90BC91A02D4B
:1019A000B283A183289FC0011124865E9D4FA81792
:1019B000B90729F412968D919C919283818389E0D5
:1019C000849FF001859FF00D1124E95EFD4F018099
:1019D000F281E02D868197819093AD018093AC01D7
:1019E00020933B02A091AC01B091AD01CD91CDBF50
:1019F000DD91DEBFFF91EF91DF91CF91BF91AF916C
:101A00009F918F917F916F915F914F913F912F9116
:101A10001F910F91FF90EF90DF90CF90BF90AF900C
:101A20009F908F907F906F905F904F903F902F90FE
:101A30001F900F900FBE0F900895CF93DF930097E4
:101A400051F0EC010E943905CE010E94A811DF91EE
:101A5000CF910C94D508DF91CF910895CF93DF9368
:101A600000D000D01F92CDB7DEB7E091F801F09121
:101A7000F9011081F12CE12C112329F00580F68168
:101A8000E02DE080F1800E9439050E942F056C0155
:101A90008091EB019091EC01C816D90608F04CC07A
:101AA0000E941C06D092EC01C092EB010E94D50866
:101AB00050E040E0BE016F5F7F4F80910E02909139
:101AC0000F020E949D0A882381F2898187FDF0CF51
:101AD0000C811D81D8011A968D919C91892B21F042
:101AE000C80102960E944A050E942F057C01809140
:101AF000EB019091EC01E816F90610F40E941C0627
:101B0000F092EC01E092EB01E981E150E93080F6DE
:101B10000E2E000CFF0BED56F24FD80152968C9111
:101B200052970C945312160E160E5A0E420E540E65
:101B3000160E160E5A0E420ED092EC01C092EB0118
:101B4000112351F0CE14DF0470F00E94D508B601C5
:101B5000C7010E94F205ACCFE091F601F091F701C8
:101B6000808161E0811160E000910E0210910F020E
:101B70000FB6F8940F92D8015D968C915D978F3FC8
:101B800011F45D961C92F801868D8F3F09F4168E34
:101B90000F900FBED8015A968C915A9781113CC074
:101BA0005296ED91FC91A091AC01B091AD011F96C0
:101BB000FC93EE931E97A091AC01B091AD0184818E
:101BC000958151969C938E9350978091AC01909102
:101BD000AD01A481B5810C9613969C938E931297B8
:101BE0008091AC019091AD010C9695838483E09136
:101BF000AC01F091AD01C8014196958B848BF80141
:101C000081898F5F818BC7018C199D09662311F033
:101C10008FEF9FEF0E943A06C8010E949D070E9425
:101C2000D508811145CF0E94170842CF8160F80185
:101C3000828B2A813B8164857585620F731FA701A2
:101C4000C8010E94A405882309F432CFD801529616
:101C50008C91529782FF12C06A817B811C968D9174
:101C60009C91680F791FA701C8010E94CE05D80179
:101C70005096ED91FC91C80109951ACF8E7FF8011D
:101C8000828BF5CF816052968C9352976A817B81CB
:101C90001D967C936E931C976E0D7F1D9701A70177
:101CA000C8010E94A40504CF81FD04C0C8010E94A0
:101CB0001D0DFECE8E7FF801828BFACE00E010E083
:101CC0008091D30181110CC080911702823010F0F5
:101CD0000E9417080115110599F30E945F01F0CFCA
:101CE0000FB6F8940F92E091DA01F091DB01C68112
:101CF000D781CE0102960E944A058091D40181507D
:101D00008093D4018091D30181508093D3010F90AF
:101D10000FBE8F89988D0E941D0DCE010E941D0D52
:101D2000CFCFCF93DF93EC010E943905CE010E9403
:101D30000C11EC010E94D508209769F4259A2D9A80
:101D40002FEF80E792E0215080409040E1F700C003
:101D500000001D9AF5CFCE01DF91CF9108955F92DB
:101D60006F927F928F929F92AF92BF92CF92DF92AB
:101D7000EF92FF920F931F93CF93DF93782E892ECC
:101D8000562E672E6A01922E132FCA010E94910EC1
:101D90005C01892B09F4EDC088E290E00E94910E6D
:101DA000EC01892B09F4E2C088E2DE011D928A95DC
:101DB000E9F7B88EAF8AA60165EA70E0C5010E9416
:101DC0006212B1E0CB1AD108EF89F88DEC0DFD1D40
:101DD000652D762DCE0149969B01285F3F4FDB0193
:101DE0004D91BD01DC014D93CD01AB014150510935
:101DF000DA014C91442319F06217730781F718A296
:101E00000E8B09A31B861A861D8A1C8AD987C88750
:101E100084E090E0801B91099D878C87DB8BCA8BC7
:101E20007082DF0111978C9211971C92119780E8B4
:101E30008C9311971C9257979C9211971C93B39770
:101E4000F983E883E114F10419F0F701D183C08329
:101E50000FB6F8940F928091D4018F5F8093D401D4
:101E60008091AC019091AD01892B09F093C0D09382
:101E7000AD01C093AC018091D401813081F587E13F
:101E800092E00E94BC0680E292E00E94BC0689E2D9
:101E900092E00E94BC0682E392E00E94BC068BEBBB
:101EA00091E00E94BC0682EB91E00E94BC0688ECA7
:101EB00091E00E94BC0685ED91E00E94BC068EED8B
:101EC00091E00E94BC068BEB91E09093E801809337
:101ED000E70182EB91E09093EA018093E901809120
:101EE000C4018F5F8093C401AE8980913B028A1741
:101EF00010F4A0933B0229E02A9FD0011124A95E8F
:101F0000BD4F11960D90BC91A02DBD83AC8314964E
:101F10008D919C9115979F838E831496ED91FC91E2
:101F20001597CE0102969383828315969C938E9388
:101F30001497EE89E29FF0011124E95EFD4FFB87C3
:101F4000EA8780818F5F80830F900FBE809112029D
:101F5000882351F0E091AC01F091AD0196898E8912
:101F6000981710F40E94170881E004C0C5010E9470
:101F70001D0D8FEFDF91CF911F910F91FF90EF908B
:101F8000DF90CF90BF90AF909F908F907F906F9099
:101F90005F900895809112028111A1CFE091AC0170
:101FA000F091AD0196898E89891708F498CFD09366
:101FB000AD01C093AC0193CF0E94540B1895789457
:101FC00084B5826084BD84B5816084BD85B582603E
:101FD00085BD85B5816085BD80916E0081608093EF
:101FE0006E00109281008091810082608093810058
:101FF0008091810081608093810080918000816068
:10200000809380008091B10084608093B1008091C2
:10201000B00081608093B00080917A0084608093EA
:102020007A0080917A00826080937A0080917A00B1
:10203000816080937A0080917A00806880937A0032
:102040001092C10020910501309106018FEF98E0B8
:10205000821B930B90930201809301010E94240341
:1020600095E1E92E92E0F92E00E030E020E040EC2E
:1020700050E06EE971E08EE59EE00E94AF0E813087
:1020800009F092C00FB6F8940F9280910E029091D1
:102090000F02892B59F583E092E00E94BC068AEF7B
:1020A00091E00E94BC0683E092E09093F901809356
:1020B000F8018AEF91E09093F7018093F60183E5B0
:1020C00090E00E94910EEC01009761F08196998357
:1020D00088838AE08B8F85E08C8FCE010E94E70792
:1020E00018A21F8ED0930F02C0930E020F900FBE46
:1020F00080910E0290910F02892B09F455C08CE05B
:10210000E82E82E0F82E03E030E020E045E550E0E4
:1021100063EA71E08EE29DE00E94AF0E813009F02B
:1021200043C0F8942FEF3FEF309314022093130233
:10213000809312021092110210921002A89588E169
:1021400090EC0FB6F894A895809360000FBE909322
:102150006000A091AC01B091AD01CD91CDBFDD91FA
:10216000DEBFFF91EF91DF91CF91BF91AF919F9132
:102170008F917F916F915F914F913F912F911F911F
:102180000F91FF90EF90DF90CF90BF90AF909F9016
:102190008F907F906F905F904F903F902F901F9007
:1021A0000F900FBE0F900895809100010E942403AC
:1021B000C0E0D0E02097F1F30E945F01FBCFECE399
:1021C000F2E01382128288EE93E0A0E0B0E0848314
:1021D0009583A683B7838BE091E09183808385EC20
:1021E00090E09587848784EC90E09787868780ECE1
:1021F00090E0918B808B81EC90E0938B828B82ECD2
:1022000090E0958B848B86EC90E0978B868B118E7B
:10221000128E138E148E08950F931F93CF93DF9316
:102220008230910510F482E090E0E091DB02F091C1
:10223000DC0230E020E0B0E0A0E0309799F4211516
:10224000310509F44AC0281B390B24303105D8F573
:102250008A819B816115710589F1FB0193838283DA
:10226000FE0111C040815181028113814817590735
:10227000E0F04817590799F4109761F012960C9303
:10228000129713961C933296CF01DF91CF911F9135
:102290000F9108950093DB021093DC02F4CF211517
:1022A000310551F04217530738F0A901DB019A01BB
:1022B000BD01DF01F801C1CFEF01F9CF9093DC023E
:1022C0008093DB02CDCFFE01E20FF31F8193919348
:1022D0002250310939832883D7CF2091D9023091F8
:1022E000DA02232B41F42091030130910401309351
:1022F000DA022093D90220910101309102012115C7
:10230000310541F42DB73EB74091050150910601CA
:10231000241B350BE091D902F091DA02E217F307A2
:10232000A0F42E1B3F0B2817390778F0AC014E5F45
:102330005F4F2417350748F04E0F5F1F5093DA02A6
:102340004093D902819391939FCFF0E0E0E09CCF3E
:10235000CF93DF930097E9F0FC013297138212824A
:10236000A091DB02B091DC02ED0130E020E010979B
:10237000A1F420813181820F931F2091D9023091E5
:10238000DA022817390709F061C0F093DA02E09306
:10239000D902DF91CF910895EA01CE17DF07E8F562
:1023A0004A815B819E0141155105B1F7E901FB832B
:1023B000EA8349915991C40FD51FEC17FD0761F4C9
:1023C000808191810296840F951FE901998388830A
:1023D000828193819B838A83F0E0E0E012968D9165
:1023E0009C9113970097B9F52D913C911197CD01D0
:1023F0000296820F931F2091D9023091DA0228179A
:10240000390739F6309751F51092DC021092DB0251
:10241000B093DA02A093D902BCCFD383C2834081A8
:102420005181840F951FC817D90761F44E5F5F4F24
:1024300088819981480F591F518340838A819B81EC
:10244000938382832115310509F0B0CFF093DC022C
:10245000E093DB029ECFFD01DC01C0CF138212822C
:10246000D7CFA1E21A2EAA1BBB1BFD010DC0AA1FCC
:10247000BB1FEE1FFF1FA217B307E407F50720F0ED
:10248000A21BB30BE40BF50B661F771F881F991F68
:102490001A9469F760957095809590959B01AC01B1
:1024A000BD01CF010895EE0FFF1F0590F491E02DBF
:1024B0000994FB01DC0102C001900D924150504093
:1024C000D8F70895DC0101C06D9341505040E0F70A
:1024D0000895F894FFCF030000DD028000000000A3
:1024E000008E01EB001801DB01490127013B01448B
:1024F00061746120726563656976656420737563D4
:1025000063696E65737366756C6C793A20000D0AA9
:1025100000436F756C64206E6F742072656365692B
:1025200076652066726F6D20717565756500436F05
:10253000756C64206E6F742073656E6420746F20F8
:102540007468652071756575650053656E646572A4
:10255000205461736B20310053656E6465722054A2
:1025600061736B2032005265636569766572205431
:1025700061736B0049444C4500546D72205376637F
:02258000000059
:107E0000112484B714BE81FFF0D085E080938100F7
:107E100082E08093C00088E18093C10086E0809377
:107E2000C20080E18093C4008EE0C9D0259A86E02C
:107E300020E33CEF91E0309385002093840096BBD3
:107E4000B09BFECF1D9AA8958150A9F7CC24DD24C4
:107E500088248394B5E0AB2EA1E19A2EF3E0BF2EE7
:107E6000A2D0813461F49FD0082FAFD0023811F036
:107E7000013811F484E001C083E08DD089C08234E0
:107E800011F484E103C0853419F485E0A6D080C0E4
:107E9000853579F488D0E82EFF2485D0082F10E0AE
:107EA000102F00270E291F29000F111F8ED06801E7
:107EB0006FC0863521F484E090D080E0DECF843638
:107EC00009F040C070D06FD0082F6DD080E0C81688
:107ED00080E7D80618F4F601B7BEE895C0E0D1E017
:107EE00062D089930C17E1F7F0E0CF16F0E7DF06D8
:107EF00018F0F601B7BEE89568D007B600FCFDCFD4
:107F0000A601A0E0B1E02C9130E011968C91119780
:107F100090E0982F8827822B932B1296FA010C0160
:107F200087BEE89511244E5F5F4FF1E0A038BF0790
:107F300051F7F601A7BEE89507B600FCFDCF97BE46
:107F4000E89526C08437B1F42ED02DD0F82E2BD052
:107F50003CD0F601EF2C8F010F5F1F4F84911BD097
:107F6000EA94F801C1F70894C11CD11CFA94CF0C13
:107F7000D11C0EC0853739F428D08EE10CD085E9AC
:107F80000AD08FE07ACF813511F488E018D01DD067
:107F900080E101D065CF982F8091C00085FFFCCF94
:107FA0009093C60008958091C00087FFFCCF809118
:107FB000C00084FD01C0A8958091C6000895E0E648
:107FC000F0E098E1908380830895EDDF803219F02E
:107FD00088E0F5DFFFCF84E1DECF1F93182FE3DFCA
:107FE0001150E9F7F2DF1F91089580E0E8DFEE27F6
:047FF000FF270994CA
:027FFE00040479
:00000001FF
