:100000000C9462000C948A000C948A000C948A0070
:100010000C948A000C948A000C948A100C948A0028
:100020000C948A000C948A000C948A000C948A0028
:100030000C948A000C948A000C948A000C948A0018
:100040000C940B050C948A000C94D9040C94B30402
:100050000C948A000C948A000C948A000C948A00F8
:100060000C948A000C948A000000000023002600F3
:10007000290000000008000201000003040700003E
:1000800000000000000000000000250028002B00F8
:1000900000000000240027002A00040404040404D3
:1000A0000404020202020202030303030303010227
:1000B00004081020408001020408102001020408F6
:1000C0001020AC1111241FBECFEFD8E0DEBFCDBF92
:1000D00011E0A0E0B1E0E0E7F6E202C005900D9289
:1000E000A438B107D9F722E0A4E8B1E001C01D921D
:1000F000A83CB207E1F710E0C2E6D0E004C02197C7
:10010000FE010E942013C136D107C9F70E948D104D
:100110000C9436130C94000090E0FC01E255FF4F64
:10012000249186569F4FFC018491882399F090E09A
:10013000880F991FFC01E057FF4FA591B491FC0176
:10014000EA57FF4F859194918FB7F894EC91E22B89
:10015000EC938FBF0895AF92BF92CF92DF92EF9250
:10016000FF920F931F93CF93DF936C017B018B0161
:10017000040F151FEB015E01AE18BF08C017D107B1
:1001800059F06991D601ED91FC910190F081E02D3B
:10019000C6010995892B79F7C501DF91CF911F9190
:1001A0000F91FF90EF90DF90CF90BF90AF900895A8
:1001B000FC01538D448D252F30E0842F90E0821B6D
:1001C000930B541710F0CF96089501970895FC01F2
:1001D000918D828D981761F0A28DAE0FBF2FB11D4A
:1001E0005D968C91928D9F5F9F73928F90E00895A2
:1001F0008FEF9FEF0895FC01918D828D981731F05C
:10020000828DE80FF11D858D90E008958FEF9FEFAF
:100210000895FC01918D228D892F90E0805C9F4F85
:10022000821B91098F739927089587E292E00E94BB
:10023000090121E0892B09F420E0822F08950E9412
:10024000150181110C940000089580E090E0892B45
:1002500011F00C941F010895FC01A48DA80FB92F73
:10026000B11DA35ABF4F2C91848D90E001968F73DE
:100270009927848FA689B7892C93A089B1898C91FD
:10028000837080648C93938D848D981306C002884C
:10029000F389E02D80818F7D80830895EF92FF9216
:1002A0000F931F93CF93DF93EC0181E0888F9B8D99
:1002B0008C8D98131AC0E889F989808185FF15C053
:1002C0009FB7F894EE89FF896083E889F989808176
:1002D0008370806480839FBF81E090E0DF91CF9145
:1002E0001F910F91FF90EF900895F62E0B8D10E067
:1002F0000F5F1F4F0F731127E02E8C8D8E110CC0D6
:100300000FB607FCFACFE889F989808185FFF5CF20
:10031000CE010E942C01F1CFEB8DEC0FFD2FF11DD2
:10032000E35AFF4FF0829FB7F8940B8FEA89FB895D
:1003300080818062CFCFCF93DF93EC01888D8823BB
:10034000B9F0AA89BB89E889F9898C9185FD03C038
:10035000808186FD0DC00FB607FCF7CF8C9185FF1D
:10036000F2CF808185FFEDCFCE010E942C01E9CF35
:10037000DF91CF910895833081F028F4813099F096
:100380008230A9F008958730A9F08830C9F0843010
:10039000B1F4809180008F7D03C0809180008F77C1
:1003A00080938000089584B58F7784BD089584B5C7
:1003B0008F7DFBCF8091B0008F778093B000089540
:1003C0008091B0008F7DF9CFCF93DF93282F30E05D
:1003D000F901EE58FF4F8491F901E255FF4FD49196
:1003E000F901E656FF4FC491CC23A1F081110E9480
:1003F000BB01EC2FF0E0EE0FFF1FE859FF4FA59176
:10040000B491EC91ED2381E090E009F480E0DF917C
:10041000CF91089580E090E0FACF1F93CF93DF93C0
:10042000282F30E0F901EE58FF4F8491F901E25591
:10043000FF4FD491F901E656FF4FC491CC23A9F0A8
:10044000162F81110E94BB01EC2FF0E0EE0FFF1F71
:10045000EA57FF4FA591B4918FB7F894EC91111121
:1004600008C0D095DE23DC938FBFDF91CF911F9121
:100470000895DE2BF8CF259A2D9A0895FC0101905E
:100480000020E9F73197AF01481B590BBC0187E207
:1004900092E00C94AB008F929F92AF92BF92CF925A
:1004A000DF92EF92FF920F931F93CF93DF93CDB71D
:1004B000DEB7A1970FB6F894DEBF0FBECDBF6C01BB
:1004C000990FEE08FF08F7FE47C06DE287E292E061
:1004D0000E944E018C0122273327A9012C193D09C6
:1004E0004E095F0919A2CE0181967C019AE0892EFE
:1004F000912CA12CB12CCA01B901A50194010E9433
:10050000FE12605DF70162937F01211531054105FF
:10051000510589F790E080E0309719F0CF010E94F3
:100520003E02080F191F89E191E00E943E02800FF0
:10053000911FA1960FB6F894DEBF0FBECDBFDF911D
:10054000CF911F910F91FF90EF90DF90CF90BF90D0
:10055000AF909F908F900895A701960119A28E01E8
:100560000F5D1F4F8AE0C82ED12CE12CF12CCA015F
:10057000B901A70196010E94FE12605DF801629325
:100580008F01211531054105510589F7309729F073
:10059000CF010E943E028C01C6CF10E000E0C3CF25
:1005A00087E00E948C00C1E087E00E94E401682F90
:1005B0006C2787E00E940D0280919B0190919C0125
:1005C000019690939C0180939B018CE191E00E94A5
:1005D0003E0280919B0190919C010E944B020E94DF
:1005E0008A0D80919A018823F9F280919601909169
:1005F0009701A0919801B09199010196A11DB11D9B
:100600008093960190939701A0939801B0939901DC
:100610000497A105B10540F2809194019091950154
:1006200020918401309185018217930721F0009772
:1006300011F00E94660B1092960110929701109291
:1006400098011092990110929A01AECF86E00E9413
:100650008C00C1E086E00E94E401682F6C2786E0F0
:100660000E940D0280918A0190918B0101969093D6
:100670008B0180938A018DE291E00E943E0280917D
:100680008A0190918B010E944B020E948A0DE2CF59
:1006900088E00E948C00FF24F39402ED11E089E0D1
:1006A000E82E88E00E94E401682F6F2588E00E9410
:1006B0000D02809192019091930101969093930184
:1006C0008093920180918E0190918F01A091900171
:1006D000B09191010196A11DB11D80938E0190935F
:1006E0008F01A0939001B09391018CE391E00E945F
:1006F0003E0280919201909193010E944B020E94D0
:100700008A0D80918E0190918F01A0919001B091FE
:1007100091010797A105B10520F2F0929A0110927C
:100720008E0110928F0110929001109291010FB6DC
:10073000F8940F92C0918401D09185016E0122E05E
:10074000C20ED11CC6010E942D068C899D89892B61
:1007500021F0CE010C960E942D06E091D301F0917C
:10076000D401FD83EC83848195819F838E83A48152
:10077000B5811396DC92CE921297D582C4821B87E4
:100780000A878091D2018F5F8093D2018FA181303F
:1007900009F41FA20F900FBE80912502882339F023
:1007A0000FB6F8940F920E9455050F900FBE8091DE
:1007B000840190918501C817D90731F480912502F1
:1007C0008823A1F00E94A80A80918C0190918D014C
:1007D00020918401309185018217930709F461CF3C
:1007E000009709F45ECF0E94660B5BCF9091D20117
:1007F00080912602981305C0109285011092840101
:10080000E3CF8091A001882319F0F0929F01DCCF03
:1008100010929F01A0918401B0918501E091840123
:10082000F09185012D913C918789908D82179307D6
:10083000A8F080918401909185018091840190912C
:1008400085010E943B028FEF97EA21E6815090409C
:100850002040E1F700C000001D9AF5CF80912302EF
:10086000482F50E0E49EF001E59EF00D1124E15088
:10087000FE4F9081992341F1A181B28112960D9092
:10088000BC91A02DB283A1838E9D900111242E5F77
:100890003D4FA217B30729F412962D913C91328354
:1008A0002183E49EF001E59EF00D1124E150FE4FFE
:1008B0000180F281E02D26813781309385012093DC
:1008C00084018093230280CF8150CACF0F931F935E
:1008D000E7E2F2E0A089B18982E08C93A485B58536
:1008E0001C92A685B7858FEC8C93108EA489B58950
:1008F00086E08C93A289B3898C9180618C93A289C4
:10090000B3898C9188608C93A289B3898C9180681B
:100910008C930288F389E02D80818F7D808308E8A5
:1009200011E021E040E850E06BE471E086E293E002
:100930000E94650F04E911E021E040E850E068E51D
:1009400071E088E493E00E94650F0CE811E021E07B
:1009500040E850E066E671E080ED92E00E94650FAD
:100960001F910F9108951F920F920FB60F921124AD
:100970002F933F934F935F936F937F938F939F93A7
:10098000AF93BF93EF93FF9387E292E00E942C0115
:10099000FF91EF91BF91AF919F918F917F916F9157
:1009A0005F914F913F912F910F900FBE0F901F902D
:1009B00018951F920F920FB60F9211242F938F93B9
:1009C0009F93EF93FF93E0913702F091380280817B
:1009D000E0913D02F0913E0282FD1BC0908180912A
:1009E00040028F5F8F7320914102821741F0E091A6
:1009F0004002F0E0E95DFD4F958F80934002FF914A
:100A0000EF919F918F912F910F900FBE0F901F909C
:100A100018958081F4CF1F920F920FB60F92112478
:100A20002F933F938F939F93AF93BF938091AA018E
:100A30009091AB01A091AC01B091AD013091A901B1
:100A400023E0230F2D3758F50196A11DB11D2093EA
:100A5000A9018093AA019093AB01A093AC01B0933C
:100A6000AD018091A5019091A601A091A701B0913F
:100A7000A8010196A11DB11D8093A5019093A60127
:100A8000A093A701B093A801BF91AF919F918F91BF
:100A90003F912F910F900FBE0F901F90189526E851
:100AA000230F0296A11DB11DD2CFE091D001F0918C
:100AB000D1018081811107C08FEF9FEF9093CB010F
:100AC0008093CA010895E091D001F091D101058091
:100AD000F681E02D80819181F1CFCF93DF93DC010E
:100AE0001596ED91FC910680F781E02DA489B589DA
:100AF0008685978520893189EC013D832C83C089C7
:100B0000D1899B838A83CF010C9611962D913C91BC
:100B100012972817390721F41296DC93CE93119778
:100B2000158A148A2C9121502C932091A001211117
:100B300057C0A285B3858481958126813781EC01D8
:100B40003D832C83C681D7819B838A83CF01029604
:100B500011962D913C9112972817390721F412967E
:100B6000DC93CE931197138612862C9121502C93EF
:100B7000C689209123022C1710F4C093230229E088
:100B80002C9FE0011124C150DE4F0980DA81C02D75
:100B9000D583C4834C815D8157834683AC81BD81FD
:100BA00013969C938E9312979D838C83A689A29F04
:100BB000D0011124A150BE4FB387A2878C918F5FC3
:100BC0008C93A0918401B0918501968956968C9161
:100BD000891730F581E080939F01DF91CF910895CF
:100BE000A091E501B091E601B787A68714962D91F3
:100BF0003C911597318B208B1496CD91DC911597F4
:100C00009B838A8315969C938E93149784EE91E030
:100C1000958B848B8091E4018F5F8093E401D1CF29
:100C200080E0DBCF0FB6F8940F928091C8019091CD
:100C3000C9010F900FBE08958091A0018F5F80932E
:100C4000A00108950FB6F8940F92FC01928D0F90B9
:100C50000FBE81E0911180E00895CF93DF93FC01F6
:100C6000A085B1858281938124813581EC013D830A
:100C70002C83C481D5819B838A8311968D919C910D
:100C800012978E179F0721F41296DC93CE9311973B
:100C9000118610868C9181508C938C91DF91CF912D
:100CA00008950F931F93CF93DF938C01FB018081F5
:100CB0009181D80113968F3F9807F1F4E801AF8135
:100CC000B88512968D919C91139793838283EC0142
:100CD000FD83EC83B583A4831396FC93EE93129764
:100CE00011870087F80180818F5F8083DF91CF912A
:100CF0001F910F910895D90112962D913C91139750
:100D0000E9014881598184179507A8F7DACFFC01DA
:100D100073836283918780874617570790F0421B41
:100D2000530B8485958548175907C8F4BF016E5F3A
:100D30007F4F8091AE019091AF010E94510680E0FB
:100D400008954217530718F46217730740F4BF0160
:100D50006E5F7F4F8091B0019091B101EECF81E045
:100D60000895EF92FF920F931F93CF93DF93EC01BF
:100D70008B017A016C857D85600F711F9801A70139
:100D8000CE010E948706811107C0DF91CF911F918C
:100D90000F91FF90EF9008958C859D85080F191F86
:100DA000E889F989CE010995E5CFEF92FF920F937B
:100DB0001F93CF93DF938C017B01E091B001F09101
:100DC000B1010580F681E02DC681D781CE01029662
:100DD0000E942D068A8982FF0FC0A701B801CE01AB
:100DE0000E94B106E889F989CE01DF91CF911F9168
:100DF0000F91FF90EF9009948E7F8A8BF3CFE09153
:100E0000B001F091B101808181110DC08091AE01DE
:100E10009091AF019093B1018093B001F093AF0135
:100E2000E093AE0108950580F681E02D6FEF7FEF2E
:100E3000808191810E94D506E2CFFF920F931F938C
:100E4000CF93DF93EC01F62E0091C8011091C901F8
:100E5000809184019091850102960E942D06CF3FDA
:100E6000DC07E9F5FF20D9F1E091D301F091D4013D
:100E7000A0918401B09185011596FC93EE9314978F
:100E8000A0918401B09185018481958117969C93EE
:100E90008E9316978091840190918501A481B581EC
:100EA000029613969C938E93129780918401909151
:100EB0008501029695838483E0918401F0918501F8
:100EC00082ED91E0938782878091D2018F5F80933A
:100ED000D201DF91CF911F910F91FF900895C00F24
:100EE000D11FE0918401F0918501D383C283609189
:100EF000840170918501C017D10768F48091CE01FB
:100F00009091CF016E5F7F4FDF91CF911F910F9135
:100F1000FF900C9451068091D0019091D1016E5FA9
:100F20007F4F0E9451068091CA019091CB01C81752
:100F3000D90778F6D093CB01C093CA01CACFFC0180
:100F40000396928381832FEF3FEF3483238396832D
:100F5000858390878783108208952F923F924F92C6
:100F60005F926F927F928F929F92AF92BF92CF9239
:100F7000DF92EF92FF920F931F93CF93DF9300D0F6
:100F80001F92CDB7DEB76C010FB6F8940F92DC015B
:100F90005E964C903C01B1E16B0E711C332433948E
:100FA00084E0882E912C99E0292E141474F18FEF8F
:100FB000D6015E968C930F900FBE0FB6F8940F92E9
:100FC000F601158D7601F8E0EF0EF11C01E0111627
:100FD0000CF4E7C08FEFF601858F0F900FBE0F90D6
:100FE0000F900F90DF91CF911F910F91FF90EF9095
:100FF000DF90CF90BF90AF909F908F907F906F9039
:101000005F904F903F902F900895F601078D10A1AB
:101010000115110509F4BBC0DA82C982D8015A96BC
:101020009C915A975B968C915B97981708F0ADC08E
:101030005E965C905E975A96BC91BB83F801448D96
:1010400041117DC080819181892B11F0F12C09C063
:10105000E480F580E114F104D9F4F12CF801158253
:1010600014828B818F5FD8015A968C93BFEF5B12ED
:1010700082C0F8018189882309F485C0C80141969E
:101080000E946D05882309F47EC030929F017DC0C7
:10109000F70182A1815082A3268991A12917E9F243
:1010A0008111DBCF5701F2E0AF0EB11CC5010E94E8
:1010B0002D06D70191968C91919756968C935697C1
:1010C000282F30E0A401421B530B1D965C934E93D6
:1010D0001C9790912302981710F480932302229E6C
:1010E000F001239EF00D1124E150FE4F0180F281AA
:1010F000E02DD7011596FC93EE931497848195818A
:1011000017969C938E931697A481B5811396BC92E3
:10111000AE921297B582A482D7015696EC9156975B
:10112000E29DF0011124E150FE4F1B96FC93EE93DB
:101130001A9780818F5F8083FF24F3948FCF50E0D4
:10114000BE016F5F7F4F828193810E942613F80159
:10115000848D22813381820F932F911D938382830B
:10116000248135818217930708F470CF80819181A3
:10117000938382836BCF80912602581620F4539478
:10118000D8015E965C92F11080CF4A940ECF81898F
:10119000882309F40CCFC3010E946D058823A9F3AD
:1011A00074CFD60118968C91882309F413CFC70108
:1011B0000E946D05811100939F01115008CF0F927D
:1011C0000FB6F8940F921F9211242F923F924F92D4
:1011D0005F926F927F928F929F92AF92BF92CF92C7
:1011E000DF92EF92FF920F931F932F933F934F93B2
:1011F0005F936F937F938F939F93AF93BF93CF939F
:10120000DF93EF93FF93A0918401B09185010DB618
:101210000D920EB60D9213BE8091A0018111F9C0FE
:101220008091C8019091C90101969093C901809362
:10123000C801009781F52091D0013091D1014091F2
:10124000CE015091CF015093D1014093D001309302
:10125000CF012093CE012091A4012F5F2093A40100
:10126000E091D001F091D1012081211107C02FEF31
:101270003FEF3093CB012093CA010DC0E091D00124
:10128000F091D1010580F681E02D208131813093EC
:10129000CB012093CA012091CA013091CB01821762
:1012A000930710F420E0A1C020E039E0D32EE091B4
:1012B000D001F091D1013081311107C08FEF9FEF44
:1012C0009093CB018093CA0190C0E091D001F0913E
:1012D000D1010580F681E02D0680F781E02D428165
:1012E00053818417950728F45093CB014093CA018A
:1012F0007CC0A285B3854481558166817781EA01EE
:101300007D836C8366817781EB015B834A83AF01C8
:101310004E5F5F4F11960D911C91129704171507A0
:1013200021F412967C936E931197138612863C914A
:1013300031503C93A489B5891097F9F0668577857B
:1013400000891189EB011D830C8300891189E80153
:101350007B836A831196ED90FC901297BF01645FC6
:101360007F4FE616F70621F412961C930E93119701
:10137000158A148A3C9131503C93A68930912302FE
:101380003A1710F4A0932302DA9ED0011124A15041
:10139000BE4F11960D90BC91A02DB583A4831496D9
:1013A0006D917C9115977783668314966D917C91EE
:1013B0001597EB015B834A8315965C934E931497C4
:1013C00046894D9DD0011124A150BE4FB387A287FD
:1013D0003C913F5F3C93E0918401F0918501368917
:1013E000431708F464CF21E062CFE0918401F091CB
:1013F0008501E689D9E0ED9FF0011124E150FE4F0F
:101400008081823008F021E080919F0181110EC01F
:101410000AC080919D0190919E01019690939E013A
:1014200080939D016AC0222309F467C08091A001C6
:10143000882321F081E080939F015FC010929F017B
:10144000A0918401B0918501E0918401F091850122
:101450002D913C918789908D82179307A8F08091F8
:101460008401909185018091840190918501259A54
:101470002D9A2FEF87EA91E6215080409040E1F7C6
:1014800000C000001D9AF5CF2091230289E001C021
:101490002150422F50E0849FF001859FF00D1124D0
:1014A000E150FE4F9081992399F3A181B281129668
:1014B0000D90BC91A02DB283A183289FC00111245F
:1014C0008E5F9D4FA817B90729F412968D919C91B4
:1014D0009283818389E0849FF001859FF00D112420
:1014E000E150FE4F0180F281E02D8681978190933B
:1014F00085018093840120932302A0918401B091FF
:101500008501CD91CDBFDD91DEBFFF91EF91DF91E0
:10151000CF91BF91AF919F918F917F916F915F918B
:101520004F913F912F911F910F91FF90EF90DF907E
:10153000CF90BF90AF909F908F907F906F905F9073
:101540004F903F902F901F900F900FBE0F900895D7
:101550000F920FB6F8940F921F9211242F923F9280
:101560004F925F926F927F928F929F92AF92BF92B3
:10157000CF92DF92EF92FF920F931F932F933F939F
:101580004F935F936F937F938F939F93AF93BF938B
:10159000CF93DF93EF93FF93A0918401B0918501E6
:1015A0000DB60D920EB60D928091A001882321F008
:1015B00081E080939F015FC010929F01A091840100
:1015C000B0918501E0918401F09185012D913C91CC
:1015D0008789908D82179307A8F08091840190915C
:1015E00085018091840190918501259A2D9A2FEF94
:1015F00087EA91E6215080409040E1F700C000006A
:101600001D9AF5CF2091230289E001C02150422F7D
:1016100050E0849FF001859FF00D1124E150FE4FB2
:101620009081992399F3A181B28112960D90BC917A
:10163000A02DB283A183289FC00111248E5F9D4FEE
:10164000A817B90729F412968D919C9192838183F2
:1016500089E0849FF001859FF00D1124E150FE4F39
:101660000180F281E02D868197819093850180939E
:10167000840120932302A0918401B0918501CD9132
:10168000CDBFDD91DEBFFF91EF91DF91CF91BF9193
:10169000AF919F918F917F916F915F914F913F910A
:1016A0002F911F910F91FF90EF90DF90CF90BF90FF
:1016B000AF909F908F907F906F905F904F903F90F2
:1016C0002F901F900F900FBE0F9008950F931F93B0
:1016D000CF93DF93EC010FB6F8940F928A859B8528
:1016E000825D914009F047C08C899D89E1E0843E8C
:1016F0009E0709F440C0892BF1F58E010E5F1F4F44
:10170000C8010E942D06AE89809123028A1710F429
:10171000A093230229E02A9FD0011124A150BE4F9B
:1017200011960D90BC91A02DBD83AC8314968D9124
:101730009C9115979F838E8314968D919C911597FC
:10174000FC011383028315961C930E9314979E89B4
:10175000929FF0011124E150FE4FFB87EA878081C0
:101760008F5F8083E0918401F091850186899817CD
:1017700010F00E94A80A0F900FBEDF91CF911F9129
:101780000F9108958F929F92BF92CF92DF92EF9226
:10179000FF920F931F93CF93DF930FB6F8940F929E
:1017A0008091A00181508093A0018091A0018823A5
:1017B00079F080E00F900FBEDF91CF911F910F91D4
:1017C000FF90EF90DF90CF90BF909F908F90089503
:1017D00080912602882369F3E090E901F090EA0104
:1017E000F0E0E0E039E041E08091E40181115EC089
:1017F000EF2B11F00E945505E0909D01F0909E01A5
:10180000E114F10409F47DC189E0D82ECC24C394FD
:101810000FEF1FEF8091A001811161C1C091C8013C
:10182000D091C9014E018FEF881A980A9092C90190
:101830008092C80181149104B9F48091D0019091F3
:10184000D1012091CE013091CF013093D10120936D
:10185000D0019093CF018093CE018091A4018F5F3E
:101860008093A4010E9455058091CA019091CB01FB
:10187000B12C8816990608F026C1E0918401F091F8
:101880008501E689DE9EF0011124E150FE4F808142
:10189000823010F0BB24B39480919F01811103C06A
:1018A000BB2009F425C1C0929F0122C1D701169621
:1018B000ED91FC91A489B5896685778580899189A8
:1018C000EB019D838C8380899189EC017B836A8302
:1018D000BF01645F7F4F11960D911C9112970617FF
:1018E000170721F412969C938E931197158A148AE8
:1018F0008C9181508C93A285B3858481958166817A
:101900007781EC017D836C8366817781EB019B831A
:101910008A83CF01029611960D911C911297081798
:10192000190721F412967C936E93119713861286F1
:101930002C9121502C93A689209123022A1710F470
:10194000A09323023A9FD0011124A150BE4F1196BB
:101950000D90BC91A02DB583A48314966D917C91BC
:1019600015977783668314966D917C911597EB019B
:101970009B838A8315969C938E9314979689939F45
:10198000D0011124A150BE4FB387A2878C918F5FE5
:101990008C93A0918401B091850156968C919817F3
:1019A00008F422CF40939F011FCFE091D001F09126
:1019B000D1010580F681E02D0680F781E02D82813E
:1019C00093818816990628F49093CB018093CA01DD
:1019D00054CFC285D3858481958126813781DC01EE
:1019E00015963C932E93149726813781D90113962F
:1019F0009C938E931297CF01029649815A81481782
:101A0000590711F43A8329831386128628812150BD
:101A10002883A489B5891097F9F0268537854089F0
:101A20005189E9015D834C8340895189EA013B83F7
:101A30002A8311966D917C9112979F01245F3F4FED
:101A40006217730721F412965C934E931197158ACF
:101A5000148A2C9121502C93A689209123022A17B5
:101A600010F4A0932302DA9ED0011124A150BE4F9E
:101A700011960D90BC91A02DB583A48314962D9141
:101A80003C9115973783268314962D913C91159799
:101A9000E9019B838A8315969C938E93149796896C
:101AA0009D9DD0011124A150BE4FB387A2878C9178
:101AB0008F5F8C93E0918401F0918501868998175E
:101AC00010F0BB24B394E091D001F091D10180815A
:101AD00081116BCF1093CB010093CA01CECE8091C0
:101AE0009D0190919E01019690939E0180939D018E
:101AF000D1E0ED1AF10809F08DCE10929E011092FE
:101B00009D0180919F01882309F453CE0E94A80A69
:101B100081E050CE0E941C0660E08AE090E00E94C6
:101B20001D070E94C20B811102C00E94A80A0895DD
:101B3000CF93DF93009751F0EC010E941C06CE0179
:101B40000E947512DF91CF910C94C20BDF91CF915F
:101B50000895CF93DF9300D000D01F92CDB7DEB7AA
:101B6000E091B001F091B1011081F12CE12C112331
:101B700029F00580F681E02DE080F1800E941C06AE
:101B80000E9412066C018091A2019091A301C816D7
:101B9000D90608F085C00E94FF06D092A301C0922A
:101BA000A2010E94C20B0091C6011091C7010FB69D
:101BB000F8940F92D8015A96FC905A97FF2009F496
:101BC00030C15C964C915C97442301F150E016962D
:101BD0008D919C911797840F951F17969C938E93C8
:101BE000169714962D913C9115978217930738F00C
:101BF0008D919C91119717969C938E931697F8014F
:101C000066817781CE0101960E942613FA94D8014D
:101C10005A96FC925A9718968C91882339F0C801ED
:101C200008960E946D0581110E94A80A0F900FBEB0
:101C3000D980D7FCB8CF0C811D81D8011A968D911F
:101C40009C91892B21F0C80102960E942D060E94CA
:101C500012067C018091A2019091A301E816F90679
:101C600010F40E94FF06F092A301E092A201EFEFB0
:101C7000ED0DE93008F097CF0E2E000CFF0BE95B5D
:101C8000F14FD80152968C9152970C942013CA0EA2
:101C9000CA0E0D0FF50E070FCA0ECA0E0D0FF50E68
:101CA000D092A301C092A201112351F0CE14DF04FF
:101CB00070F00E94C20BB601C7010E94D50673CF17
:101CC000E091AE01F091AF01808161E0811160E0AF
:101CD0000091C6011091C7010FB6F8940F92D80178
:101CE0005D968C915D978F3F11F45D961C92F80183
:101CF000868D8F3F09F4168E0F900FBED8015A962D
:101D00008C915A9781113CC05296ED91FC91A09113
:101D10008401B09185011F96FC93EE931E97A091CC
:101D20008401B09185018481958151969C938E9315
:101D300050978091840190918501A481B5810C9682
:101D400013969C938E9312978091840190918501B4
:101D50000C9695838483E0918401F0918501C801FC
:101D60004196958B848BF80181898F5F818BC701A8
:101D70008C199D09662311F08FEF9FEF0E941D07BC
:101D8000C8010E94AD070E94C20B81110CCF0E94B6
:101D9000A80A09CF8160F801828BCA80DB80648544
:101DA00075856C0D7D1D9601A701C8010E948706EF
:101DB000882309F4F8CED80152968C91529782FF6D
:101DC00010C01C966D917C916C0D7D1DA701C80102
:101DD0000E94B106D8015096ED91FC91C801099579
:101DE000E2CE8E7FF801828BF5CF816052968C9384
:101DF00052976A817B811D967C936E931C976E0D22
:101E00007F1D9701A701C8010E948706CCCE81FDE6
:101E100004C0C8010E94980DC6CE8E7FF801828B47
:101E2000C2CE0F900FBE9CCE00E010E08091A101C9
:101E300081110CC08091FF01823010F00E94A80A2D
:101E40000115110599F30E941F01F0CF0FB6F89408
:101E50000F92E091E001F091E101C681D781CE01BE
:101E600002960E942D0680912602815080932602C0
:101E70008091A10181508093A1010F900FBE8F89A5
:101E8000988D0E94980DCE010E94980DCFCFCF93D0
:101E9000DF93EC010E941C06CE010E94D911EC01D7
:101EA0000E94C20B209769F40E943B022FEF80E74B
:101EB00092E0215080409040E1F700C000001D9A60
:101EC000F5CFCE01DF91CF9108957F928F929F92AF
:101ED000AF92BF92CF92DF92EF92FF920F931F9338
:101EE000CF93DF93982EA92E762E872E7A01B22ECD
:101EF000CA010E94470F6C01892B09F4EAC088E2ED
:101F000090E00E94470FEC01892B09F4DFC088E2C2
:101F1000DE011D928A95E9F7D88ECF8AA70165EA7E
:101F200070E0C6010E942F13B1E0EB1AF108EF89AF
:101F3000F88DEE0DFF1D672D782DCE0149969B0182
:101F4000285F3F4FDB014D91BD01DC014D93CD0179
:101F5000AB0141505109DA014C91442319F0621749
:101F6000730781F718A2BE8AB9A21B861A861D8A3A
:101F70001C8AD987C88784E090E08B1991099D87D6
:101F80008C87DB8BCA8B9082DF011197AC92119703
:101F90001C92119780E88C9311971C9257971C9272
:101FA00011971C92B397F983E883F801D183C0831A
:101FB0000FB6F8940F92809126028F5F80932602CD
:101FC0008091840190918501892B09F091C0D09373
:101FD0008501C093840180912602813081F58FEFC5
:101FE00091E00E949F0788E092E00E949F0781E1B4
:101FF00092E00E949F078AE192E00E949F0786EF8D
:1020000091E00E949F078DEE91E00E949F0784EE71
:1020100091E00E949F078BED91E00E949F0782ED67
:1020200091E00E949F0786EF91E09093D101809309
:10203000D0018DEE91E09093CF018093CE018091FD
:1020400024028F5F80932402AE89809123028A1735
:1020500010F4A093230229E02A9FD0011124A1505B
:10206000BE4F11960D90BC91A02DBD83AC831496EC
:102070008D919C9115979F838E831496ED91FC9181
:102080001597CE0102969383828315969C938E9327
:102090001497EE89E29FF0011124E150FE4FFB8777
:1020A000EA8780818F5F80830F900FBE8091250229
:1020B000882351F0E0918401F091850196898E8901
:1020C000981710F40E94A80A81E004C0C6010E947B
:1020D000980D8FEFDF91CF911F910F91FF90EF90AF
:1020E000DF90CF90BF90AF909F908F907F9008959A
:1020F000809125028111A3CFE0918401F0918501A7
:1021000096898E89891708F49ACFD0938501C09358
:10211000840195CF0E94DF081895789484B5826079
:1021200084BD84B5816084BD85B5826085BD85B57B
:10213000816085BD80916E00816080936E001092F9
:102140008100809181008260809381008091810074
:102150008160809381008091800081608093800005
:102160008091B10084608093B1008091B000816063
:102170008093B00080917A00846080937A0080918F
:102180007A00826080937A0080917A0081608093E7
:102190007A0080917A00806880937A001092C10062
:1021A00020910501309106018FEF98E0821B930B7F
:1021B00090930201809301010E9466040CEC11E0EF
:1021C00020E040EC50E066E771E084E19FE00E948F
:1021D000650F813009F0B5C00FB6F8940F92809169
:1021E000C6019091C701892B09F051C08BEB91E09A
:1021F0000E949F0782EB91E00E949F078BEB91E08A
:102200009093B1018093B00182EB91E09093AF0184
:102210008093AE0183E590E00E94470FEC010097A8
:1022200091F18196998388838AE08B8F85E08C8FEA
:102230000FB6F8940F92888199812B8D4C8DBC013B
:10224000249F600D711D11247D836C831A8E9B83E6
:102250008A832150330B429FB001439F700D11249C
:10226000860F971F9F838E838FEF8D8F8E8FCE016A
:1022700008960E949F07CE0141960E949F070F90EB
:102280000FBE18A21F8ED093C701C093C6010F9036
:102290000FBE8091C6019091C701892B09F451C0EE
:1022A00004EC11E023E045E550E06BE771E089EADA
:1022B0009DE00E94650F813009F043C0F8942FEF34
:1022C0003FEF3093CB012093CA01809325021092F7
:1022D000C9011092C801A89588E190EC0FB6F89456
:1022E000A895809360000FBE90936000A091840138
:1022F000B0918501CD91CDBFDD91DEBFFF91EF9112
:10230000DF91CF91BF91AF919F918F917F916F910D
:102310005F914F913F912F911F910F91FF90EF90FF
:10232000DF90CF90BF90AF909F908F907F906F90F5
:102330005F904F903F902F901F900F900FBE0F9087
:102340000895809100010E946604C0E0D0E02097CB
:10235000F1F30E941F01FBCFE7E2F2E01382128249
:1023600088EE93E0A0E0B0E084839583A683B783F2
:102370008BE091E09183808385EC90E09587848762
:1023800084EC90E09787868780EC90E0918B808B3F
:1023900081EC90E0938B828B82EC90E0958B848B28
:1023A00086EC90E0978B868B118E128E138E148E96
:1023B00008950F931F93CF93DF938230910510F40C
:1023C00082E090E0E091C602F091C70230E020E0A8
:1023D000B0E0A0E0309799F42115310509F44AC026
:1023E000281B390B24303105D8F58A819B81611572
:1023F000710589F1FB0193838283FE0111C0408145
:1024000051810281138148175907E0F04817590795
:1024100099F4109761F012960C93129713961C93EF
:102420003296CF01DF91CF911F910F9108950093C4
:10243000C6021093C702F4CF2115310551F042179F
:10244000530738F0A901DB019A01BD01DF01F80152
:10245000C1CFEF01F9CF9093C7028093C602CDCFD1
:10246000FE01E20FF31F81939193225031093983CA
:102470002883D7CF2091C4023091C502232B41F489
:1024800020910301309104013093C5022093C402CE
:1024900020910101309102012115310541F42DB740
:1024A0003EB74091050150910601241B350BE09188
:1024B000C402F091C502E217F307A0F42E1B3F0BF4
:1024C0002817390778F0AC014E5F5F4F24173507A6
:1024D00048F04E0F5F1F5093C5024093C402819392
:1024E00091939FCFF0E0E0E09CCFCF93DF930097F4
:1024F000E9F0FC01329713821282A091C602B091DA
:10250000C702ED0130E020E01097A1F42081318175
:10251000820F931F2091C4023091C50228173907FA
:1025200009F061C0F093C502E093C402DF91CF913E
:102530000895EA01CE17DF07E8F54A815B819E0125
:1025400041155105B1F7E901FB83EA83499159919E
:10255000C40FD51FEC17FD0761F4808191810296AD
:10256000840F951FE90199838883828193819B83DE
:102570008A83F0E0E0E012968D919C91139700978A
:10258000B9F52D913C911197CD010296820F931FC1
:102590002091C4023091C5022817390739F63097C7
:1025A00051F51092C7021092C602B093C502A093D3
:1025B000C402BCCFD383C28340815181840F951F55
:1025C000C817D90761F44E5F5F4F88819981480F22
:1025D000591F518340838A819B8193838283211574
:1025E000310509F0B0CFF093C702E093C6029ECF49
:1025F000FD01DC01C0CF13821282D7CFA1E21A2ED7
:10260000AA1BBB1BFD010DC0AA1FBB1FEE1FFF1F96
:10261000A217B307E407F50720F0A21BB30BE40BE6
:10262000F50B661F771F881F991F1A9469F760952D
:102630007095809590959B01AC01BD01CF010895E7
:10264000EE0FFF1F0590F491E02D0994FB01DC01D2
:1026500002C001900D9241505040D8F70895DC011E
:1026600001C06D9341505040E0F70895F894FFCFBA
:10267000030000C8028000000000004E01AB00D83B
:10268000009B010901E700FB000D0A0059656C6C15
:102690006F772052756E2054696D65200052656415
:1026A0002052756E2054696D653A2000426C756544
:1026B0002052756E2054696D652000524544204CAF
:1026C0004544205461736B00424C5545204C4544B1
:1026D000205461736B0059454C4C4F57204C454476
:1026E000205461736B0049444C4500546D72205373
:0426F000766300000D
:00000001FF
