:020000040000FA
:100000000C945D000C9485000C9485000C94850084
:100010000C9485000C9485000C9412100C948500AF
:100020000C9485000C9485000C9485000C9485003C
:100030000C9485000C9485000C9485000C9485002C
:100040000C9450030C9485000C941E030C94F8023D
:100050000C9485000C9485000C9485000C9485000C
:100060000C9485000C94850000000008000201003B
:100070000003040700000000000000000000000072
:10008000250028002B0000000000240027002A0083
:10009000040404040404040402020202020203032E
:1000A0000303030301020408102040800102040836
:1000B0001020010204081020FE1011241FBECFEFF3
:1000C000D8E0DEBFCDBF11E0A0E0B1E0E0EDF4E2AA
:1000D00002C005900D92AE37B107D9F722E0AEE726
:1000E000B1E001C01D92A33BB207E1F710E0CDE5FE
:1000F000D0E004C02197FE010E945012CC35D107F8
:10010000C9F70E9415100C9466120C94000090E040
:10011000FC01EC55FF4F249180579F4FFC018491C7
:10012000882399F090E0880F991FFC01EA57FF4F50
:10013000A591B491FC01E458FF4F859194918FB73C
:10014000F894EC91E22BEC938FBF0895AF92BF929D
:10015000CF92DF92EF92FF920F931F93CF93DF9393
:100160006C017B018B01040F151FEB015E01AE18C2
:10017000BF08C017D10759F06991D601ED91FC91E4
:100180000190F081E02DC6010995892B79F7C50111
:10019000DF91CF911F910F91FF90EF90DF90CF9063
:1001A000BF90AF900895FC01538D448D252F30E012
:1001B000842F90E0821B930B541710F0CF96089574
:1001C00001970895FC01918D828D981761F0A28DA1
:1001D000AE0FBF2FB11D5D968C91928D9F5F9F7367
:1001E000928F90E008958FEF9FEF0895FC01918D1D
:1001F000828D981731F0828DE80FF11D858D90E08A
:1002000008958FEF9FEF0895FC01918D228D892F26
:1002100090E0805C9F4F821B91098F73992708950E
:1002200088E991E00E94040121E0892B09F420E093
:10023000822F08950E94100181110C9400000895EE
:1002400080E090E0892B11F00C941A010895FC01D4
:10025000A48DA80FB92FB11DA35ABF4F2C91848D27
:1002600090E001968F739927848FA689B7892C9384
:10027000A089B1898C91837080648C93938D848DD7
:10028000981306C00288F389E02D80818F7D8083DA
:100290000895EF92FF920F931F93CF93DF93EC019A
:1002A00081E0888F9B8D8C8D98131AC0E889F9891D
:1002B000808185FF15C09FB7F894EE89FF89608320
:1002C000E889F98980818370806480839FBF81E0A1
:1002D00090E0DF91CF911F910F91FF90EF900895E3
:1002E000F62E0B8D10E00F5F1F4F0F731127E02EBE
:1002F0008C8D8E110CC00FB607FCFACFE889F989F6
:10030000808185FFF5CFCE010E942701F1CFEB8DD3
:10031000EC0FFD2FF11DE35AFF4FF0829FB7F894C9
:100320000B8FEA89FB8980818062CFCFCF93DF93E7
:10033000EC01888D8823B9F0AA89BB89E889F989FD
:100340008C9185FD03C0808186FD0DC00FB607FC32
:10035000F7CF8C9185FFF2CF808185FFEDCFCE0165
:100360000E942701E9CFDF91CF91089590E0FC0131
:10037000E859FF4F2491FC01EC55FF4F3491FC01EB
:10038000E057FF4FE491EE23C9F0222339F02330E8
:1003900001F1A8F4213019F1223029F1F0E0EE0F3B
:1003A000FF1FE458FF4FA591B4918FB7F894EC91DB
:1003B000611126C030953E233C938FBF08952730AE
:1003C000A9F02830C9F0243049F7809180008F7D52
:1003D00003C0809180008F7780938000DFCF84B549
:1003E0008F7784BDDBCF84B58F7DFBCF8091B0004C
:1003F0008F778093B000D2CF8091B0008F7DF9CFFE
:100400003E2BDACFCF93DF9300D0CDB7DEB789E1B3
:1004100091E09A83898388E00E94870060E088E009
:100420000E94B6010E94850ABE016F5F7F4F8091D6
:100430008401909185010E94DB0961E088E00E94BF
:10044000B601ECCFCF93DF9300D0CDB7DEB78EE20D
:1004500091E09A83898387E00E94870061E087E0CA
:100460000E94B6010E94850ABE016F5F7F4F809196
:100470008201909183010E94DB0960E087E00E9485
:10048000B601ECCF0F931F93CF93DF93E8E9F1E030
:10049000A089B18982E08C93A485B5851C92A6853C
:1004A000B7858FEC8C93108EA489B58986E08C93E8
:1004B000A289B3898C9180618C93A289B3898C9134
:1004C00088608C93A289B3898C9180688C93028810
:1004D000F389E02D80818F7D808362E081E00E943E
:1004E000CD0F909383018093820162E081E00E94AE
:1004F000CD0F909385018093840162E082E00E9499
:10050000CD0FEC019093870180938601BC0180910F
:100510008201909183010E949A04BE01809184011E
:10052000909185010E949A0410E000E021E044E6E9
:1005300050E064E471E082E292E00E94A50E21E0C6
:1005400044E650E062E571E082E092E00E94A50E90
:1005500022E044E650E060E671E086EB92E00E9423
:10056000A50EDF91CF911F910F910895CF93DF9347
:1005700000D000D0CDB7DEB789E00E94870080911F
:100580008601909187011A8219824FEF5FEFBE01B9
:100590006F5F7F4F0E94930A09811A8161E089E0B1
:1005A0000E94B60150E040E0BE016D5F7F4FC80180
:1005B0000E94930A6B817C816115710561F0FB01DA
:1005C00001900020E9F73197AF01461B570B88E9EE
:1005D00091E00E94A60042E050E06DE671E088E9FB
:1005E00091E00E94A60060E089E00E94B601C7CFBA
:1005F0001F920F920FB60F9211242F933F934F9398
:100600005F936F937F938F939F93AF93BF93EF937A
:10061000FF9388E991E00E942701FF91EF91BF913C
:10062000AF919F918F917F916F915F914F913F918A
:100630002F910F900FBE0F901F9018951F920F9241
:100640000FB60F9211242F938F939F93EF93FF93E5
:10065000E091A801F091A9018081E091AE01F091B3
:10066000AF0182FD1BC090818091B1018F5F8F73BC
:100670002091B201821741F0E091B101F0E0E8561B
:10068000FE4F958F8093B101FF91EF919F918F91D4
:100690002F910F900FBE0F901F9018958081F4CF6F
:1006A0001F920F920FB60F9211242F933F938F93A7
:1006B0009F93AF93BF938091940190919501A091E6
:1006C0009601B09197013091930123E0230F2D37CC
:1006D00058F50196A11DB11D2093930180939401BB
:1006E00090939501A0939601B093970180918F010B
:1006F00090919001A0919101B09192010196A11D5C
:10070000B11D80938F0190939001A0939101B093BC
:100710009201BF91AF919F918F913F912F910F9037
:100720000FBE0F901F90189526E8230F0296A11D6B
:10073000B11DD2CFE0915502F09156028081811116
:1007400007C08FEF9FEF9093500280934F02089560
:10075000E0915502F09156020580F681E02D8081EE
:100760009181F1CFFC01DB010FB6F8940F9240911B
:100770008702509188022D913C9111972F3F3207AB
:1007800011F181819281609189027081761749F01F
:100790004817590730F01D921C9281E00F900FBE50
:1007A0000895481B590B42175307A8F7241B350B14
:1007B0002D933C9380918902808380918702909150
:1007C00088029283818380E0E9CFCF93DF93DC01BD
:1007D0001596ED91FC910680F781E02DA489B589ED
:1007E0008685978520893189EC013D832C83C089DA
:1007F000D1899B838A83CF010C9611962D913C91D0
:1008000012972817390721F41296DC93CE9311978B
:10081000158A148A2C9121502C9320918B0121113F
:1008200057C0A285B3858481958126813781EC01EB
:100830003D832C83C681D7819B838A83CF01029617
:1008400011962D913C9112972817390721F4129691
:10085000DC93CE931197138612862C9121502C9302
:10086000C6892091AE022C1710F4C093AE0229E085
:100870002C9FE0011124C657DD4F0980DA81C02D7D
:10088000D583C4834C815D8157834683AC81BD8110
:1008900013969C938E9312979D838C83A689A29F17
:1008A000D0011124A657BD4FB387A2878C918F5FCB
:1008B0008C93A0917E01B0917F01968956968C9180
:1008C000891730F581E080938A01DF91CF910895F7
:1008D000A0916A02B0916B02B787A68714962D91FA
:1008E0003C911597318B208B1496CD91DC91159707
:1008F0009B838A8315969C938E93149789E692E046
:10090000958B848B809169028F5F80936902D1CF30
:1009100080E0DBCF0FB6F8940F9280918702909120
:1009200088020F900FBE089580918B018F5F809396
:100930008B010895FC010FB6F8940F92878D90A15A
:10094000892B49F4828D811106C070A3678F81E0E5
:100950000F900FBE089580E0FBCF0FB6F8940F9272
:10096000FC01928D0F900FBE81E0911180E00895FF
:10097000CF93DF93FC01A085B1858281938124818F
:100980003581EC013D832C83C481D5819B838A838F
:1009900011968D919C9112978E179F0721F41296B4
:1009A000DC93CE931197118610868C9181508C9395
:1009B0008C91DF91CF9108950F931F93CF93DF9385
:1009C0008C01FB0180819181D80113968F3F98079C
:1009D000F1F4E801AF81B88512968D919C9113973F
:1009E00093838283EC01FD83EC83B583A483139608
:1009F000FC93EE93129711870087F80180818F5F37
:100A00008083DF91CF911F910F910895D9011296A4
:100A10002D913C911397E9014881598184179507DD
:100A2000A8F7DACFFC01738362839187808746172A
:100A3000570790F0421B530B84859585481759073B
:100A4000C8F4BF016E5F7F4F8091350290913602EE
:100A50000E94DC0480E008954217530718F46217DF
:100A6000730740F4BF016E5F7F4F80913702909112
:100A70003802EECF81E00895EF92FF920F931F931B
:100A8000CF93DF93EC018B017A016C857D85600F3C
:100A9000711F9801A701CE010E941205811107C0A4
:100AA000DF91CF911F910F91FF90EF9008958C856A
:100AB0009D85080F191FE889F989CE010995E5CFB1
:100AC000EF92FF920F931F93CF93DF938C017B01E3
:100AD000E0913702F09138020580F681E02DC68161
:100AE000D781CE0102960E94B8048A8982FF0FC086
:100AF000A701B801CE010E943C05E889F989CE0121
:100B0000DF91CF911F910F91FF90EF9009948E7F0D
:100B10008A8BF3CFE0913702F09138028081811106
:100B20000DC08091350290913602909338028093E7
:100B30003702F0933602E093350208950580F6817E
:100B4000E02D6FEF7FEF808191810E946005E2CF01
:100B5000FF920F931F93CF93DF93EC01F62E00913A
:100B600087021091880280917E0190917F01029608
:100B70000E94B804CF3FDC07E9F5FF20D9F1E091EE
:100B80005802F0915902A0917E01B0917F01159613
:100B9000FC93EE931497A0917E01B0917F01848124
:100BA000958117969C938E93169780917E019091D4
:100BB0007F01A481B581029613969C938E93129720
:100BC00080917E0190917F01029695838483E091CC
:100BD0007E01F0917F0187E592E093878287809183
:100BE00057028F5F80935702DF91CF911F910F9132
:100BF000FF900895C00FD11FE0917E01F0917F0119
:100C0000D383C28360917E0170917F01C017D107A9
:100C100068F480915302909154026E5F7F4FDF9190
:100C2000CF911F910F91FF900C94DC04809155029D
:100C3000909156026E5F7F4F0E94DC0480914F02BC
:100C400090915002C817D90778F6D0935002C093FC
:100C50004F02CACFFC010396928381832FEF3FEFAF
:100C600034832383968385839087878310820895B6
:100C7000CF92DF92FF920F931F93CF93DF93EC01FC
:100C8000FA8C4C8D411172C088819981892B11F0A9
:100C900080E008C00C811D810115110569F480E018
:100CA0001D821C82F394FA8EDF91CF911F910F91D8
:100CB000FF90DF90CF900895D80192968C919297F3
:100CC000815092968C93929756962C915697919626
:100CD0009C91291721F38111E2CF6801B2E0CB0E7C
:100CE000D11CC6010E94B804F80181A1868B482F4F
:100CF00050E024E030E0241B350B358724879091A9
:100D0000AE02981710F48093AE0289E0849FD00160
:100D1000859FB00D1124A657BD4F11960D90BC9123
:100D2000A02DF801B583A48314962D913C911597BD
:100D3000378326831496ED91FC911597D382C28256
:100D40001596DC92CE921497D8015696EC91569750
:100D5000E89FF0011124E657FD4F1B96FC93EE939C
:100D60001A9780818F5F808381E09ACF50E08A81DB
:100D70009B810E9456128C8D2A813B81820F932F7A
:100D8000911D9B838A832C813D818217930708F4F0
:100D90007FCF888199819B838A837ACFEF92FF925C
:100DA0000F931F93CF93DF9300D0CDB7DEB79A8315
:100DB0008983FC01078D10A1F801928D838DE12CB0
:100DC0009817B8F4F68CBE016F5F7F4FC8010E9480
:100DD0003806E82EFFEFFF1216C0F801818988233C
:100DE00041F0C80141960E94E503882311F0EE24EA
:100DF000E3948E2D0F900F90DF91CF911F910F9163
:100E0000FF90EF90089580918602F81690F7F39482
:100E1000F801F68EEECFEF92FF920F931F93CF93D0
:100E2000DF93EC010FB6F8940F921E8D7C0181E1E7
:100E3000E80EF11C01E01116D4F08FEF8E8F0F90A9
:100E40000FBE0FB6F8940F921D8D7E0188E0E80E5C
:100E5000F11C01E01116F4F08FEF8D8F0F900FBE93
:100E6000DF91CF911F910F91FF90EF9008958F8D9B
:100E700098A1892B41F0CE010E94CE0681110093EA
:100E80008A011150D8CF89898823B9F2C7010E94FD
:100E9000E503F4CF88858823F9F2C7010E94E503B2
:100EA000811100938A011150D5CF0F920FB6F8949B
:100EB0000F921F9211242F923F924F925F926F9246
:100EC0007F928F929F92AF92BF92CF92DF92EF92DA
:100ED000FF920F931F932F933F934F935F936F93C3
:100EE0007F938F939F93AF93BF93CF93DF93EF93B2
:100EF000FF93A0917E01B0917F010DB60D920EB6C9
:100F00000D9280918B01882321F081E080938A01EA
:100F10005FC010928A01A0917E01B0917F01E091A3
:100F20007E01F0917F012D913C918789908D8217F0
:100F30009307A8F080917E0190917F0180917E01BE
:100F400090917F01259A2D9A2FEF87EA91E6215003
:100F500080409040E1F700C000001D9AF5CF20913D
:100F6000AE0289E001C02150422F50E0849FF00181
:100F7000859FF00D1124E657FD4F9081992399F339
:100F8000A181B28112960D90BC91A02DB283A18354
:100F9000289FC001112483579D4FA817B90729F432
:100FA00012968D919C919283818389E0849FF001B8
:100FB000859FF00D1124E657FD4F0180F281E02D51
:100FC0008681978190937F0180937E012093AE026A
:100FD000A0917E01B0917F01CD91CDBFDD91DEBFAB
:100FE000FF91EF91DF91CF91BF91AF919F918F9141
:100FF0007F916F915F914F913F912F911F910F9131
:10100000FF90EF90DF90CF90BF90AF909F908F9028
:101010007F906F905F904F903F902F901F900F9018
:101020000FBE0F9008958F929F92BF92CF92DF9242
:10103000EF92FF920F931F93CF93DF930FB6F89425
:101040000F9280918B01815080938B0180918B0155
:10105000882379F080E00F900FBEDF91CF911F9130
:101060000F91FF90EF90DF90CF90BF909F908F9067
:10107000089580918602882369F3E0906E02F090D3
:101080006F02F0E0E0E039E041E080916902811117
:101090005EC0EF2B11F00E949A03E0908801F0905F
:1010A0008901E114F10409F47DC189E0D82ECC2432
:1010B000C3940FEF1FEF80918B01811161C1C0912B
:1010C0008702D09188024E018FEF881A980A909279
:1010D00088028092870281149104B9F480915502AC
:1010E000909156022091530230915402309356024F
:1010F0002093550290935402809353028091890269
:101100008F5F809389020E949A0380914F02909191
:101110005002B12C8816990608F026C1E0917E0194
:10112000F0917F01E689DE9EF0011124E657FD4F24
:101130008081823010F0BB24B39480918A018111A8
:1011400003C0BB2009F425C1C0928A0122C1D70186
:101150001696ED91FC91A489B5896685778580897D
:101160009189EB019D838C8380899189EC017B833C
:101170006A83BF01645F7F4F11960D911C91129796
:101180000617170721F412969C938E931197158AD0
:10119000148A8C9181508C93A285B385848195812A
:1011A00066817781EC017D836C8366817781EB01B9
:1011B0009B838A83CF01029611960D911C91129701
:1011C0000817190721F412967C936E9311971386D2
:1011D00012862C9121502C93A6892091AE022A17B9
:1011E00010F4A093AE023A9FD0011124A657BD4F30
:1011F00011960D90BC91A02DB583A48314966D918A
:101200007C9115977783668314966D917C911597E1
:10121000EB019B838A8315969C938E9314979689F2
:10122000939FD0011124A657BD4FB387A2878C91FD
:101230008F5F8C93A0917E01B0917F0156968C9127
:10124000981708F422CF40938A011FCFE0915502EE
:10125000F09156020580F681E02D0680F781E02DA1
:10126000828193818816990628F490935002809386
:101270004F0254CFC285D3858481958126813781E1
:10128000DC0115963C932E93149726813781D90162
:1012900013969C938E931297CF01029649815A819F
:1012A0004817590711F43A83298313861286288137
:1012B00021502883A489B5891097F9F026853785B0
:1012C00040895189E9015D834C8340895189EA0154
:1012D0003B832A8311966D917C9112979F01245F25
:1012E0003F4F6217730721F412965C934E93119748
:1012F000158A148A2C9121502C93A6892091AE0234
:101300002A1710F4A093AE02DA9ED0011124A6573A
:10131000BD4F11960D90BC91A02DB583A48314965A
:101320002D913C9115973783268314962D913C91EE
:101330001597E9019B838A8315969C938E93149746
:1013400096899D9DD0011124A657BD4FB387A287D2
:101350008C918F5F8C93E0917E01F0917F01868963
:10136000981710F0BB24B394E0915502F091560207
:10137000808181116BCF1093500200934F02CECE2B
:1013800080918801909189010196909389018093C1
:101390008801D1E0ED1AF10809F08DCE1092890193
:1013A0001092880180918A01882309F453CE0E940B
:1013B000550781E050CEAF92BF92CF92DF92EF926D
:1013C000FF920F931F93CF93DF9300D000D01F9213
:1013D000CDB7DEB78C017B011D821C8280E06801E5
:1013E00098E0C90ED11C0FB6F8940F92F801228D27
:1013F000938D291758F5828DB701C8010E943806D0
:10140000F801278D30A1232BC9F0C8010E94CE0618
:1014100081110E9455070F900FBE81E00F900F9031
:101420000F900F900F90DF91CF911F910F91FF9030
:10143000EF90DF90CF90BF90AF900895918999235E
:1014400039F3C80141960E94E503E2CF2C813D812A
:10145000232B21F40F900FBE80E0E0CF811109C053
:1014600080918902898380918702909188029B8371
:101470008A830F900FBE0E9494040FB6F8940F92C7
:10148000F801858D8F3F09F4158EF801868D8F3F09
:1014900009F4168E0F900FBEBE016C5F7F4FCE0118
:1014A00001960E94B20381112AC00FB6F8940F92E0
:1014B000F801928D838D0F900FBE98131AC0AC80E7
:1014C000BD8060917E0170917F01645F7F4FC60196
:1014D0000E94DC0461E0C5010E94A805C8010E94C9
:1014E0000B070E941308811102C00E94550781E07A
:1014F0007ACFC8010E940B070E941308F8CFC801D9
:101500000E940B070E941308A7CF0E94940460E07A
:101510008CE090E00E94A8050E941308811102C08F
:101520000E9455070895AF92BF92CF92DF92EF923B
:10153000FF920F931F93CF93DF9300D000D01F92A1
:10154000CDB7DEB78C016B015D834C8380E0580121
:1015500091E1A90EB11C0FB6F8940F92F801F28C2C
:10156000FF20C9F1448D4423B1F050E0868197817A
:10157000840F951F97838683248135818217930773
:1015800020F08081918197838683F801668177813D
:10159000C6010E945612FA94F801F28E80858823C3
:1015A00039F0C80108960E94E50381110E94550791
:1015B0000F900FBE81E00F900F900F900F900F9043
:1015C000DF91CF911F910F91FF90EF90DF90CF901F
:1015D000BF90AF9008952C813D81232B21F40F9073
:1015E0000FBE80E0E8CF811109C080918902898314
:1015F00080918702909188029B838A830F900FBE0F
:101600000E9494040FB6F8940F92F801858D8F3FD5
:1016100009F4158EF801868D8F3F09F4168E0F9010
:101620000FBEBE016C5F7F4FCE0101960E94B203D8
:10163000811125C0C8010E94AD048823D1F0EC803F
:10164000FD8060917E0170917F01645F7F4FC501D5
:101650000E94DC0461E0C7010E94A805C8010E9445
:101660000B070E941308811102C00E94550781E0F8
:1016700072CFC8010E940B070E941308F8CFC8015F
:101680000E940B070E941308C8010E94AD04882322
:1016900071F3A7CF0F920FB6F8940F921F921124F7
:1016A0002F923F924F925F926F927F928F929F9272
:1016B000AF92BF92CF92DF92EF92FF920F931F9360
:1016C0002F933F934F935F936F937F938F939F934A
:1016D000AF93BF93CF93DF93EF93FF93A0917E01DE
:1016E000B0917F010DB60D920EB60D9213BE809192
:1016F0008B018111F9C08091870290918802019637
:101700009093880280938702009781F5209155027B
:101710003091560240915302509154025093560218
:101720004093550230935402209353022091890232
:101730002F5F20938902E0915502F091560220819B
:10174000211107C02FEF3FEF3093500220934F023B
:101750000DC0E0915502F09156020580F681E02D12
:10176000208131813093500220934F0220914F020B
:10177000309150028217930710F420E0A1C020E0BE
:1017800039E0D32EE0915502F091560230813111AB
:1017900007C08FEF9FEF9093500280934F0290C04D
:1017A000E0915502F09156020580F681E02D068009
:1017B000F781E02D428153818417950728F45093D7
:1017C000500240934F027CC0A285B385448155816D
:1017D00066817781EA017D836C8366817781EB0185
:1017E0005B834A83AF014E5F5F4F11960D911C9151
:1017F00012970417150721F412967C936E93119794
:10180000138612863C9131503C93A489B589109778
:10181000F9F06685778500891189EB011D830C83BA
:1018200000891189E8017B836A831196ED90FC9011
:101830001297BF01645F7F4FE616F70621F41296F8
:101840001C930E931197158A148A3C9131503C9346
:10185000A6893091AE023A1710F4A093AE02DA9E38
:10186000D0011124A657BD4F11960D90BC91A02D0B
:10187000B583A48314966D917C91159777836683C5
:1018800014966D917C911597EB015B834A831596B5
:101890005C934E93149746894D9DD0011124A65711
:1018A000BD4FB387A2873C913F5F3C93E0917E019F
:1018B000F0917F013689431708F464CF21E062CFAD
:1018C000E0917E01F0917F01E689D9E0ED9FF00182
:1018D0001124E657FD4F8081823008F021E080918D
:1018E0008A0181110EC00AC08091880190918901FE
:1018F000019690938901809388016AC0222309F49C
:1019000067C080918B01882321F081E080938A0158
:101910005FC010928A01A0917E01B0917F01E09199
:101920007E01F0917F012D913C918789908D8217E6
:101930009307A8F080917E0190917F0180917E01B4
:1019400090917F01259A2D9A2FEF87EA91E62150F9
:1019500080409040E1F700C000001D9AF5CF209133
:10196000AE0289E001C02150422F50E0849FF00177
:10197000859FF00D1124E657FD4F9081992399F32F
:10198000A181B28112960D90BC91A02DB283A1834A
:10199000289FC001112483579D4FA817B90729F428
:1019A00012968D919C919283818389E0849FF001AE
:1019B000859FF00D1124E657FD4F0180F281E02D47
:1019C0008681978190937F0180937E012093AE0260
:1019D000A0917E01B0917F01CD91CDBFDD91DEBFA1
:1019E000FF91EF91DF91CF91BF91AF919F918F9137
:1019F0007F916F915F914F913F912F911F910F9127
:101A0000FF90EF90DF90CF90BF90AF909F908F901E
:101A10007F906F905F904F903F902F901F900F900E
:101A20000FBE0F900895CF93DF93009751F0EC0114
:101A30000E949404CE010E94C711DF91CF910C94B3
:101A40001308DF91CF910895CF93DF9300D000D09A
:101A50001F92CDB7DEB7E0913702F09138021081C6
:101A6000F12CE12C112329F00580F681E02DE08096
:101A7000F1800E9494040E948A046C0180918D017F
:101A800090918E01C816D90608F04CC00E948A05B4
:101A9000D0928E01C0928D010E94130850E040E068
:101AA000BE016F5F7F4F80914D0290914E020E9468
:101AB000930A882381F2898187FDF0CF0C811D81F3
:101AC000D8011A968D919C91892B21F0C80102961C
:101AD0000E94B8040E948A047C0180918D0190913B
:101AE0008E01E816F90610F40E948A05F0928E0124
:101AF000E0928D01E981E150E93080F60E2E000C74
:101B0000FF0BE757F24FD80152968C9152970C94E5
:101B100050120C0E0C0E500E380E4A0E0C0E0C0EFF
:101B2000500E380ED0928E01C0928D01112351F0CB
:101B3000CE14DF0470F00E941308B601C7010E94A2
:101B40006005ACCFE0913502F0913602808161E012
:101B5000811160E000914D0210914E020FB6F89491
:101B60000F92D8015D968C915D978F3F11F45D9631
:101B70001C92F801868D8F3F09F4168E0F900FBED0
:101B8000D8015A968C915A9781113CC05296ED918A
:101B9000FC91A0917E01B0917F011F96FC93EE9382
:101BA0001E97A0917E01B0917F018481958151960D
:101BB0009C938E93509780917E0190917F01A48198
:101BC000B5810C9613969C938E93129780917E010B
:101BD00090917F010C9695838483E0917E01F09132
:101BE0007F01C8014196958B848BF80181898F5FB5
:101BF000818BC7018C199D09662311F08FEF9FEF30
:101C00000E94A805C8010E940B070E9413088111B9
:101C100045CF0E94550742CF8160F801828B2A810F
:101C20003B8164857585620F731FA701C8010E94FF
:101C30001205882309F432CFD80152968C9152971D
:101C400082FF12C06A817B811C968D919C91680FE6
:101C5000791FA701C8010E943C05D8015096ED915B
:101C6000FC91C80109951ACF8E7FF801828BF5CFC0
:101C7000816052968C9352976A817B811D967C93EA
:101C80006E931C976E0D7F1D9701A701C8010E94DE
:101C9000120504CF81FD04C0C8010E94130DFECEC1
:101CA0008E7FF801828BFACE00E010E080918C01EB
:101CB00081110CC080918A02823010F00E94550779
:101CC0000115110599F30E941A01F0CF0FB6F8948F
:101CD0000F92E0916502F0916602C681D781CE0134
:101CE00002960E94B80480918602815080938602F9
:101CF00080918C01815080938C010F900FBE8F8951
:101D0000988D0E94130DCE010E94130DCFCFCF935B
:101D1000DF93EC010E949404CE010E942B11EC0190
:101D20000E941308209769F4259A2D9A2FEF80E7D7
:101D300092E0215080409040E1F700C000001D9AE1
:101D4000F5CFCE01DF91CF9108957F928F929F9230
:101D5000AF92BF92CF92DF92EF92FF920F931F93B9
:101D6000CF93DF93982EA92E762E872E7A01B22E4E
:101D7000CA010E94870E6C01892B09F4EDC088E22C
:101D800090E00E94870EEC01892B09F4E2C088E202
:101D9000DE011D928A95E9F7D88ECF8AA70165EA00
:101DA00070E0C6010E945F12B1E0EB1AF108EF8902
:101DB000F88DEE0DFF1D672D782DCE0149969B0104
:101DC000285F3F4FDB014D91BD01DC014D93CD01FB
:101DD000AB0141505109DA014C91442319F06217CB
:101DE000730781F718A2BE8AB9A21B861A861D8ABC
:101DF0001C8AD987C88784E090E08B1991099D8758
:101E00008C87DB8BCA8B9082DF011197AC92119784
:101E10001C92119780E88C9311971C9257971C92F3
:101E200011971C92B397F983E8830115110519F0F6
:101E3000F801D183C0830FB6F8940F928091860287
:101E40008F5F8093860280917E0190917F01892B24
:101E500009F091C0D0937F01C0937E0180918602EA
:101E6000813081F58AE892E00E942A0683E992E0B7
:101E70000E942A068CE992E00E942A0685EA92E0F6
:101E80000E942A068BE792E00E942A0682E792E0EF
:101E90000E942A0689E692E00E942A0680E692E0E5
:101EA0000E942A0687E592E00E942A068BE792E0CC
:101EB000909356028093550282E792E090935402E9
:101EC00080935302809184028F5F80938402AE8955
:101ED0008091AE028A1710F4A093AE0229E02A9FE7
:101EE000D0011124A657BD4F11960D90BC91A02D85
:101EF000BD83AC8314968D919C9115979F838E839F
:101F00001496ED91FC911597CE01029693838283EE
:101F100015969C938E931497EE89E29FF0011124FD
:101F2000E657FD4FFB87EA8780818F5F80830F90A4
:101F30000FBE80918502882351F0E0917E01F091DF
:101F40007F0196898E89981710F40E94550781E0C9
:101F500004C0C6010E94130D8FEFDF91CF911F9136
:101F60000F91FF90EF90DF90CF90BF90AF909F9038
:101F70008F907F900895809185028111A3CFE09189
:101F80007E01F0917F0196898E89891708F49ACF96
:101F9000D0937F01C0937E0195CF0F931F93CF9372
:101FA000DF93082F162F869FC001112481960E946F
:101FB000870EEC01009781F18196998388830B8FBE
:101FC0001C8F0FB6F8940F92888199812B8D4C8DC0
:101FD000BC01249F600D711D11247D836C831A8EBA
:101FE0009B838A832150330B429FB001439F700D26
:101FF0001124860F971F9F838E838FEF8D8F8E8F77
:10200000CE0108960E942A06CE0141960E942A0619
:102010000F900FBE18A21F8ECE01DF91CF911F919E
:102020000F9108950E944A0B1895789484B58260A8
:1020300084BD84B5816084BD85B5826085BD85B56C
:10204000816085BD80916E00816080936E001092EA
:102050008100809181008260809381008091810065
:1020600081608093810080918000816080938000F6
:102070008091B10084608093B1008091B000816054
:102080008093B00080917A00846080937A00809180
:102090007A00826080937A0080917A0081608093D8
:1020A0007A0080917A00806880937A001092C10053
:1020B00020910501309106018FEF98E0821B930B70
:1020C00090930201809301010E94420201E512E017
:1020D00020E040EC50E060E771E084E59EE00E9483
:1020E000A50E813009F07FC00FB6F8940F92809151
:1020F0004D0290914E02892BE1F482E492E00E941D
:102100002A0689E392E00E942A0682E492E09093F4
:1021100038028093370289E392E0909336028093ED
:10212000350265E08AE00E94CD0F90934E028093C5
:102130004D020F900FBE80914D0290914E02892B5F
:1021400009F451C00BE412E023E045E550E065E7F7
:1021500071E084E29DE00E94A50E813009F043C049
:10216000F8942FEF3FEF3093500220934F0280936B
:1021700085021092880210928702A89588E190EC5F
:102180000FB6F894A895809360000FBE90936000FE
:10219000A0917E01B0917F01CD91CDBFDD91DEBFD9
:1021A000FF91EF91DF91CF91BF91AF919F918F916F
:1021B0007F916F915F914F913F912F911F910F915F
:1021C000FF90EF90DF90CF90BF90AF909F908F9057
:1021D0007F906F905F904F903F902F901F900F9047
:1021E0000FBE0F900895809100010E944202C0E04E
:1021F000D0E02097F1F30E941A01FBCFE8E9F1E06B
:102200001382128288EE93E0A0E0B0E0848395838D
:10221000A683B7838BE091E09183808385EC90E087
:102220009587848784EC90E09787868780EC90E0A0
:10223000918B808B81EC90E0938B828B82EC90E091
:10224000958B848B86EC90E0978B868B118E128E0B
:10225000138E148E08950F931F93CF93DF938230C4
:10226000910510F482E090E0E091B102F091B202A9
:1022700030E020E0B0E0A0E0309799F4211531057E
:1022800009F44AC0281B390B24303105D8F58A815E
:102290009B816115710589F1FB0193838283FE01A6
:1022A00011C0408151810281138148175907E0F024
:1022B0004817590799F4109761F012960C931297EA
:1022C00013961C933296CF01DF91CF911F910F91FE
:1022D00008950093B1021093B202F4CF2115310595
:1022E00051F04217530738F0A901DB019A01BD01F3
:1022F000DF01F801C1CFEF01F9CF9093B2028093D3
:10230000B102CDCFFE01E20FF31F819391932250D2
:10231000310939832883D7CF2091AF023091B002A1
:10232000232B41F420910301309104013093B0023A
:102330002093AF0220910101309102012115310556
:1023400041F42DB73EB74091050150910601241B81
:10235000350BE091AF02F091B002E217F307A0F461
:102360002E1B3F0B2817390778F0AC014E5F5F4FEB
:102370002417350748F04E0F5F1F5093B00240936B
:10238000AF02819391939FCFF0E0E0E09CCFCF9399
:10239000DF930097E9F0FC01329713821282A0913B
:1023A000B102B091B202ED0130E020E01097A1F44B
:1023B00020813181820F931F2091AF023091B002B2
:1023C0002817390709F061C0F093B002E093AF021B
:1023D000DF91CF910895EA01CE17DF07E8F54A8132
:1023E0005B819E0141155105B1F7E901FB83EA8349
:1023F00049915991C40FD51FEC17FD0761F48081F5
:1024000091810296840F951FE901998388838281C7
:1024100093819B838A83F0E0E0E012968D919C91FA
:1024200013970097B9F52D913C911197CD01029624
:10243000820F931F2091AF023091B0022817390705
:1024400039F6309751F51092B2021092B102B09362
:10245000B002A093AF02BCCFD383C283408151812D
:10246000840F951FC817D90761F44E5F5F4F8881AD
:102470009981480F591F518340838A819B8193839F
:1024800082832115310509F0B0CFF093B202E093B9
:10249000B1029ECFFD01DC01C0CF13821282D7CFE3
:1024A000EE0FFF1F0590F491E02D0994FB01DC0174
:1024B00002C001900D9241505040D8F70895DC01C0
:1024C00001C06D9341505040E0F70895F894FFCF5C
:1024D000030000B3028000000000004901A600D301
:1024E0000096010401E200F60048656C6C6F7720ED
:1024F00066726F6D2053656E6465722032004D65A3
:1025000073736167652066726F6D2053656E6465D5
:102510007220310053656E646572205461736B20C4
:10252000310053656E646572205461736B20320014
:1025300052656365697665725461736B000D0A00BC
:0E25400049444C4500546D72205376630000F0
:107E0000112484B714BE81FFF0D085E080938100F7
:107E100082E08093C00088E18093C10086E0809377
:107E2000C20080E18093C4008EE0C9D0259A86E02C
:107E300020E33CEF91E0309385002093840096BBD3
:107E4000B09BFECF1D9AA8958150A9F7CC24DD24C4
:107E500088248394B5E0AB2EA1E19A2EF3E0BF2EE7
:107E6000A2D0813461F49FD0082FAFD0023811F036
:107E7000013811F484E001C083E08DD089C08234E0
:107E800011F484E103C0853419F485E0A6D080C0E4
:107E9000853579F488D0E82EFF2485D0082F10E0AE
:107EA000102F00270E291F29000F111F8ED06801E7
:107EB0006FC0863521F484E090D080E0DECF843638
:107EC00009F040C070D06FD0082F6DD080E0C81688
:107ED00080E7D80618F4F601B7BEE895C0E0D1E017
:107EE00062D089930C17E1F7F0E0CF16F0E7DF06D8
:107EF00018F0F601B7BEE89568D007B600FCFDCFD4
:107F0000A601A0E0B1E02C9130E011968C91119780
:107F100090E0982F8827822B932B1296FA010C0160
:107F200087BEE89511244E5F5F4FF1E0A038BF0790
:107F300051F7F601A7BEE89507B600FCFDCF97BE46
:107F4000E89526C08437B1F42ED02DD0F82E2BD052
:107F50003CD0F601EF2C8F010F5F1F4F84911BD097
:107F6000EA94F801C1F70894C11CD11CFA94CF0C13
:107F7000D11C0EC0853739F428D08EE10CD085E9AC
:107F80000AD08FE07ACF813511F488E018D01DD067
:107F900080E101D065CF982F8091C00085FFFCCF94
:107FA0009093C60008958091C00087FFFCCF809118
:107FB000C00084FD01C0A8958091C6000895E0E648
:107FC000F0E098E1908380830895EDDF803219F02E
:107FD00088E0F5DFFFCF84E1DECF1F93182FE3DFCA
:107FE0001150E9F7F2DF1F91089580E0E8DFEE27F6
:047FF000FF270994CA
:027FFE00040479
:00000001FF
