:100000000C9461000C947E000C947E000C947E0095
:100010000C947E000C947E000C94900B0C947E004B
:100020000C947E000C947E000C947E000C947E0058
:100030000C947E000C947E000C947E000C947E0048
:100040000C9468010C947E000C947E000C947E004D
:100050000C947E000C947E000C947E000C947E0028
:100060000C947E000C947E0000000000230026000B
:10007000290000000008000201000003040700003E
:1000800000000000000000000000250028002B00F8
:1000900000000000240027002A00040404040404D3
:1000A0000404020202020202030303030303010227
:1000B00004081020408001020408102001020408F6
:1000C000102011241FBECFEFD8E0DEBFCDBF11E05E
:1000D000A0E0B1E0EAEDFBE102C005900D92A03393
:1000E000B107D9F721E0A0E3B1E001C01D92A23C25
:1000F000B207E1F70E94930B0C94EB0D0C940000F7
:1001000090E0FC01E255FF4F249186569F4FFC0181
:100110008491882399F090E0880F991FFC01E057A3
:10012000FF4FA591B491FC01EA57FF4F859194913F
:100130008FB7F894EC91E22BEC938FBF0895833046
:1001400081F028F4813099F08230A9F00895873049
:10015000A9F08830C9F08430B1F4809180008F7D9F
:1001600003C0809180008F7780938000089584B5CC
:100170008F7784BD089584B58F7DFBCF8091B000CB
:100180008F778093B00008958091B0008F7DF9CF74
:10019000CF93DF93282F30E0F901EE58FF4F849181
:1001A000F901E255FF4FD491F901E656FF4FC49192
:1001B000CC23A1F081110E949F00EC2FF0E0EE0F04
:1001C000FF1FE859FF4FA591B491EC91ED2381E019
:1001D00090E009F480E0DF91CF91089580E090E015
:1001E000FACF1F93CF93DF93282F30E0F901EE5819
:1001F000FF4F8491F901E255FF4FD491F901E65682
:10020000FF4FC491CC23A9F0162F81110E949F00AB
:10021000EC2FF0E0EE0FFF1FEA57FF4FA591B491CE
:100220008FB7F894EC91111108C0D095DE23DC93C0
:100230008FBFDF91CF911F910895DE2BF8CF87E01C
:100240000E948000C1E087E00E94C800682F6C27F0
:1002500087E00E94F100F7CF88E00E948000C1E0B3
:1002600088E00E94C800682F6C2788E00E94F10097
:10027000F7CF86E00E948000C1E086E00E94C800BF
:10028000682F6C2786E00E94F100F7CF0F931F9331
:1002900010E000E023E044E650E067E071E089E32D
:1002A00091E00E94680A22E044E650E06FE071E0CD
:1002B0008CE291E00E94680A21E044E650E06AE1A5
:1002C00071E08FE191E00E94680A1F910F910895FB
:1002D0001F920F920FB60F9211242F933F938F937B
:1002E0009F93AF93BF938091410190914201A09160
:1002F0004301B09144013091400123E0230F2D3799
:1003000058F50196A11DB11D209340018093410134
:1003100090934201A0934301B093440180913C012A
:1003200090913D01A0913E01B0913F010196A11D28
:10033000B11D80933C0190933D01A0933E01B09389
:100340003F01BF91AF919F918F913F912F910F905E
:100350000FBE0F901F90189526E8230F0296A11D3F
:10036000B11DD2CFE0916701F091680180818111C8
:1003700007C08FEF9FEF9093620180936101089512
:10038000E0916701F09168010580F681E02D8081A0
:100390009181F1CFCF93DF93DC011596ED91FC9124
:1003A0000680F781E02DA489B58986859785208907
:1003B0003189EC013D832C83C089D1899B838A8359
:1003C000CF010C9611962D913C9112972817390761
:1003D00021F41296DC93CE931197158A148A2C91EE
:1003E00021502C9320913701211157C0A285B3854C
:1003F0008481958126813781EC013D832C83C681E0
:10040000D7819B838A83CF01029611962D913C91CF
:1004100012972817390721F41296DC93CE9311977F
:10042000138612862C9121502C93C6892091BA01F3
:100430002C1710F4C093BA0129E02C9FE00111247D
:10044000CA56DE4F0980DA81C02DD583C4834C8122
:100450005D8157834683AC81BD8113969C938E93B7
:1004600012979D838C83A689A29FD0011124AA563E
:10047000BE4FB387A2878C918F5F8C93A091300180
:10048000B0913101968956968C91891730F581E0AB
:1004900080933601DF91CF910895A0917C01B091B6
:1004A0007D01B787A68714962D913C911597318BC6
:1004B000208B1496CD91DC9115979B838A8315969A
:1004C0009C938E9314978BE791E0958B848B80910E
:1004D0007B018F5F80937B01D1CF80E0DBCF0FB6B4
:1004E000F8940F9280915F01909160010F900FBE80
:1004F0000895809137018F5F8093370108950FB67B
:10050000F8940F92FC01928D0F900FBE81E0911133
:1005100080E00895EF92FF920F931F93CF93DF93A4
:10052000EC010FB6F8940F921E8D7C0181E1E80E6C
:10053000F11C01E01116D4F08FEF8E8F0F900FBEDB
:100540000FB6F8940F921D8D7E0188E0E80EF11C25
:1005500001E01116B4F08FEF8D8F0F900FBEDF9179
:10056000CF911F910F91FF90EF9008958989882373
:1005700019F3C7010E94CA0181110093360111507D
:10058000D9CF8885882339F3C7010E94CA01811118
:10059000009336011150DDCFCF93DF93FC01A0858E
:1005A000B1858281938124813581EC013D832C8347
:1005B000C481D5819B838A8311968D919C911297DA
:1005C0008E179F0721F41296DC93CE931197118614
:1005D00010868C9181508C938C91DF91CF910895EE
:1005E0000F931F93CF93DF938C01FB018081918147
:1005F000D80113968F3F9807F1F4E801AF81B885D1
:1006000012968D919C91139793838283EC01FD83C5
:10061000EC83B583A4831396FC93EE931297118712
:100620000087F80180818F5F8083DF91CF911F91D8
:100630000F910895D90112962D913C911397E901DC
:100640004881598184179507A8F7DACFFC01738395
:100650006283918780874617570790F0421B530BA0
:100660008485958548175907C8F4BF016E5F7F4F91
:1006700080914501909146010E94F00280E008952A
:100680004217530718F46217730740F4BF016E5FF7
:100690007F4F8091470190914801EECF81E008950E
:1006A000EF92FF920F931F93CF93DF93EC018B0197
:1006B0007A016C857D85600F711F9801A701CE01BD
:1006C0000E942603811107C0DF91CF911F910F91E6
:1006D000FF90EF9008958C859D85080F191FE8897C
:1006E000F989CE010995E5CFEF92FF920F931F9301
:1006F000CF93DF938C017B01E0914701F09148019A
:100700000580F681E02DC681D781CE0102960E9438
:10071000CC028A8982FF0FC0A701B801CE010E94D6
:100720005003E889F989CE01DF91CF911F910F9194
:10073000FF90EF9009948E7F8A8BF3CFE091470171
:10074000F0914801808181110DC080914501909107
:1007500046019093480180934701F0934601E0934E
:10076000450108950580F681E02D6FEF7FEF8081D0
:1007700091810E947403E2CFFF920F931F93CF9356
:10078000DF93EC01F62E00915F01109160018091E2
:1007900030019091310102960E94CC02CF3FDC07DC
:1007A000E9F5FF20D9F1E0916A01F0916B01A09188
:1007B0003001B09131011596FC93EE931497A091FE
:1007C0003001B09131018481958117969C938E936D
:1007D00016978091300190913101A481B5810296E4
:1007E00013969C938E9312978091300190913101D2
:1007F000029695838483E0913001F091310189E67E
:1008000091E093878287809169018F5F809369016E
:10081000DF91CF911F910F91FF900895C00FD11FCD
:10082000E0913001F0913101D383C28360913001B6
:1008300070913101C017D10768F4809165019091E2
:1008400066016E5F7F4FDF91CF911F910F91FF90F7
:100850000C94F00280916701909168016E5F7F4F68
:100860000E94F0028091610190916201C817D9073E
:1008700078F6D0936201C0936101CACFFC01039660
:10088000928381832FEF3FEF348323839683858385
:1008900090878783108208950F920FB6F8940F9275
:1008A0001F9211242F923F924F925F926F927F92EC
:1008B0008F929F92AF92BF92CF92DF92EF92FF9270
:1008C0000F931F932F933F934F935F936F937F9358
:1008D0008F939F93AF93BF93CF93DF93EF93FF9348
:1008E000A0913001B09131010DB60D920EB60D926E
:1008F00080913701882321F081E0809336015FC029
:1009000010923601A0913001B0913101E091300197
:10091000F09131012D913C918789908D8217930739
:10092000A8F0809130019091310180913001909137
:100930003101259A2D9A2FEF87EA91E621508040C8
:100940009040E1F700C000001D9AF5CF2091BA0158
:1009500089E001C02150422F50E0849FF001859F23
:10096000F00D1124EA56FE4F9081992399F3A1814D
:10097000B28112960D90BC91A02DB283A183289FC5
:10098000C001112487569E4FA817B90729F4129663
:100990008D919C919283818389E0849FF001859F52
:1009A000F00D1124EA56FE4F0180F281E02D868180
:1009B000978190933101809330012093BA01A091E7
:1009C0003001B0913101CD91CDBFDD91DEBFFF91FE
:1009D000EF91DF91CF91BF91AF919F918F917F91D7
:1009E0006F915F914F913F912F911F910F91FF90C8
:1009F000EF90DF90CF90BF90AF909F908F907F90BF
:100A00006F905F904F903F902F901F900F900FBE70
:100A10000F9008958F929F92BF92CF92DF92EF92A4
:100A2000FF920F931F93CF93DF930FB6F8940F921B
:100A3000809137018150809337018091370188235D
:100A400079F080E00F900FBEDF91CF911F910F9151
:100A5000FF90EF90DF90CF90BF909F908F90089580
:100A60008091BD01882369F3E0908001F0908101BD
:100A7000F0E0E0E039E041E080917B0181115EC06F
:100A8000EF2B11F00E94B201E0903401F09035019B
:100A9000E114F10409F47DC189E0D82ECC24C3947B
:100AA0000FEF1FEF80913701811161C1C0915F018C
:100AB000D09160014E018FEF881A980A90926001E0
:100AC00080925F0181149104B9F480916701909143
:100AD000680120916501309166013093680120938F
:100AE0006701909366018093650180913B018F5F60
:100AF00080933B010E94B20180916101909162015B
:100B0000B12C8816990608F026C1E0913001F091C9
:100B10003101E689DE9EF0011124EA56FE4F808104
:100B2000823010F0BB24B39480913601811103C050
:100B3000BB2009F425C1C092360122C1D701169607
:100B4000ED91FC91A489B589668577858089918925
:100B5000EB019D838C8380899189EC017B836A837F
:100B6000BF01645F7F4F11960D911C91129706177C
:100B7000170721F412969C938E931197158A148A65
:100B80008C9181508C93A285B385848195816681F7
:100B90007781EC017D836C8366817781EB019B8398
:100BA0008A83CF01029611960D911C911297081716
:100BB000190721F412967C936E931197138612866F
:100BC0002C9121502C93A6892091BA012A1710F458
:100BD000A093BA013A9FD0011124AA56BE4F119694
:100BE0000D90BC91A02DB583A48314966D917C913A
:100BF00015977783668314966D917C911597EB0119
:100C00009B838A8315969C938E9314979689939FC2
:100C1000D0011124AA56BE4FB387A2878C918F5F53
:100C20008C93A0913001B091310156968C91981718
:100C300008F422CF409336011FCFE0916701F09175
:100C400068010580F681E02D0680F781E02D828124
:100C500093818816990628F490936201809361012C
:100C600054CFC285D3858481958126813781DC016B
:100C700015963C932E93149726813781D9011396AC
:100C80009C938E931297CF01029649815A814817FF
:100C9000590711F43A83298313861286288121503B
:100CA0002883A489B5891097F9F02685378540896E
:100CB0005189E9015D834C8340895189EA013B8375
:100CC0002A8311966D917C9112979F01245F3F4F6B
:100CD0006217730721F412965C934E931197158A4D
:100CE000148A2C9121502C93A6892091BA012A179D
:100CF00010F4A093BA01DA9ED0011124AA56BE4F77
:100D000011960D90BC91A02DB583A48314962D91BE
:100D10003C9115973783268314962D913C91159716
:100D2000E9019B838A8315969C938E9314979689E9
:100D30009D9DD0011124AA56BE4FB387A2878C91E6
:100D40008F5F8C93E0913001F09131018689981783
:100D500010F0BB24B394E0916701F09168018081A9
:100D600081116BCF1093620100936101CECE80910F
:100D700034019091350101969093350180933401AF
:100D8000D1E0ED1AF10809F08DCE109235011092E4
:100D9000340180913601882309F453CE0E944C041B
:100DA00081E050CE0F920FB6F8940F921F9211244B
:100DB0002F923F924F925F926F927F928F929F926B
:100DC000AF92BF92CF92DF92EF92FF920F931F9359
:100DD0002F933F934F935F936F937F938F939F9343
:100DE000AF93BF93CF93DF93EF93FF93A091300125
:100DF000B09131010DB60D920EB60D9213BE8091D9
:100E000037018111F9C080915F01909160010196D5
:100E10009093600180935F01009781F520916701B5
:100E200030916801409165015091660150936801CD
:100E300040936701309366012093650120913B0147
:100E40002F5F20933B01E0916701F09168012081C1
:100E5000211107C02FEF3FEF309362012093610112
:100E60000DC0E0916701F09168010580F681E02DE9
:100E700020813181309362012093610120916101D1
:100E8000309162018217930710F420E0A1C020E0A6
:100E900039E0D32EE0916701F09168013081311182
:100EA00007C08FEF9FEF909362018093610190C024
:100EB000E0916701F09168010580F681E02D0680E0
:100EC000F781E02D428153818417950728F45093D0
:100ED0006201409361017CC0A285B3854481558144
:100EE00066817781EA017D836C8366817781EB017E
:100EF0005B834A83AF014E5F5F4F11960D911C914A
:100F000012970417150721F412967C936E9311978C
:100F1000138612863C9131503C93A489B589109771
:100F2000F9F06685778500891189EB011D830C83B3
:100F300000891189E8017B836A831196ED90FC900A
:100F40001297BF01645F7F4FE616F70621F41296F1
:100F50001C930E931197158A148A3C9131503C933F
:100F6000A6893091BA013A1710F4A093BA01DA9E1B
:100F7000D0011124AA56BE4F11960D90BC91A02D00
:100F8000B583A48314966D917C91159777836683BE
:100F900014966D917C911597EB015B834A831596AE
:100FA0005C934E93149746894D9DD0011124AA5607
:100FB000BE4FB387A2873C913F5F3C93E0913001E5
:100FC000F09131013689431708F464CF21E062CFF4
:100FD000E0913001F0913101E689D9E0ED9FF00117
:100FE0001124EA56FE4F8081823008F021E0809182
:100FF000360181110EC00AC08091340190913501F3
:10100000019690933501809334016AC0222309F43C
:1010100067C080913701882321F081E080933601F9
:101020005FC010923601A0913001B0913101E09182
:101030003001F09131012D913C918789908D82177B
:101040009307A8F080913001909131018091300197
:1010500090913101259A2D9A2FEF87EA91E6215040
:1010600080409040E1F700C000001D9AF5CF20912C
:10107000BA0189E001C02150422F50E0849FF00165
:10108000859FF00D1124EA56FE4F9081992399F324
:10109000A181B28112960D90BC91A02DB283A18343
:1010A000289FC001112487569E4FA817B90729F41D
:1010B00012968D919C919283818389E0849FF001A7
:1010C000859FF00D1124EA56FE4F0180F281E02D3C
:1010D0008681978190933101809330012093BA01EA
:1010E000A0913001B0913101CD91CDBFDD91DEBF36
:1010F000FF91EF91DF91CF91BF91AF919F918F9130
:101100007F916F915F914F913F912F911F910F911F
:10111000FF90EF90DF90CF90BF90AF909F908F9017
:101120007F906F905F904F903F902F901F900F9007
:101130000FBE0F900895CF93DF93009751F0EC010D
:101140000E947902CE010E944C0DDF91CF910C9448
:101150000A05DF91CF910895CF93DF9300D000D09F
:101160001F92CDB7DEB7E0914701F09148011081A1
:10117000F12CE12C112329F00580F681E02DE0808F
:10118000F1800E9479020E946F026C018091390106
:1011900090913A01C816D90608F085C00E949E03B6
:1011A000D0923A01C09239010E940A0500915D0176
:1011B00010915E010FB6F8940F92D8015A96FC90E8
:1011C0005A97FF2009F430C15C964C915C974423F8
:1011D00001F150E016968D919C911797840F951F01
:1011E00017969C938E93169714962D913C91159774
:1011F0008217930738F08D919C91119717969C93C5
:101200008E931697F80166817781CE0101960E9430
:10121000DB0DFA94D8015A96FC925A9718968C9145
:10122000882339F0C80108960E94CA0181110E94E2
:101230004C040F900FBED980D7FCB8CF0C811D8114
:10124000D8011A968D919C91892B21F0C8010296A4
:101250000E94CC020E946F027C0180913901909122
:101260003A01E816F90610F40E949E03F0923A0142
:10127000E0923901EFEFED0DE93008F097CF0E2E37
:10128000000CFF0BE65BF64FD80152968C915297FB
:101290000C94D50DCD09CD09100AF8090A0ACD091B
:1012A000CD09100AF809D0923A01C09239011123F0
:1012B00051F0CE14DF0470F00E940A05B601C70198
:1012C0000E94740373CFE0914501F0914601808143
:1012D00061E0811160E000915D0110915E010FB647
:1012E000F8940F92D8015D968C915D978F3F11F421
:1012F0005D961C92F801868D8F3F09F4168E0F9033
:101300000FBED8015A968C915A9781113CC05296C3
:10131000ED91FC91A0913001B09131011F96FC93A9
:10132000EE931E97A0913001B09131018481958197
:1013300051969C938E9350978091300190913101FA
:10134000A481B5810C9613969C938E9312978091ED
:101350003001909131010C9695838483E0913001A6
:10136000F0913101C8014196958B848BF8018189F8
:101370008F5F818BC7018C199D09662311F08FEF58
:101380009FEF0E94BC03C8010E948A020E940A05C6
:1013900081110CCF0E944C0409CF8160F801828B2F
:1013A000CA80DB80648575856C0D7D1D9601A70163
:1013B000C8010E942603882309F4F8CED80152966A
:1013C0008C91529782FF10C01C966D917C916C0D90
:1013D0007D1DA701C8010E945003D8015096ED91D0
:1013E000FC91C8010995E2CE8E7FF801828BF5CF82
:1013F000816052968C9352976A817B811D967C9373
:101400006E931C976E0D7F1D9701A701C8010E9466
:101410002603CCCE81FD04C0C8010E949B08C6CE25
:101420008E7FF801828BC2CE0F900FBE9CCE00E063
:1014300010E08091380181110CC0809196018230BA
:1014400010F00E944C040115110599F30E94000050
:10145000F0CF0FB6F8940F92E0917701F0917801F8
:10146000C681D781CE0102960E94CC028091BD0137
:1014700081508093BD018091380181508093380163
:101480000F900FBE8F89988D0E949B08CE010E94FD
:101490009B08CFCFCF93DF93EC010E947902CE015E
:1014A0000E94B00CEC010E940A05209769F4259A6D
:1014B0002D9A2FEF80E792E0215080409040E1F795
:1014C00000C000001D9AF5CFCE01DF91CF910895A5
:1014D0007F928F929F92AF92BF92CF92DF92EF92C4
:1014E000FF920F931F93CF93DF93982EA92E762E02
:1014F000872E7A01B22ECA010E944A0A6C01892BFA
:1015000009F4EDC088E290E00E944A0AEC01892BC0
:1015100009F4E2C088E2DE011D928A95E9F7D88ECF
:10152000CF8AA70165EA70E0C6010E94E40DB1E030
:10153000EB1AF108EF89F88DEE0DFF1D672D782D60
:10154000CE0149969B01285F3F4FDB014D91BD01C4
:10155000DC014D93CD01AB0141505109DA014C91B1
:10156000442319F06217730781F718A2BE8AB9A243
:101570001B861A861D8A1C8AD987C88784E090E05A
:101580008B1991099D878C87DB8BCA8B9082DF0139
:101590001197AC9211971C92119780E88C93119738
:1015A0001C9257971C9211971C92B397F983E8836A
:1015B0000115110519F0F801D183C0830FB6F89415
:1015C0000F928091BD018F5F8093BD0180913001AA
:1015D00090913101892B09F091C0D0933101C093D2
:1015E00030018091BD01813081F586E991E00E9452
:1015F0003E048FE991E00E943E0488EA91E00E9457
:101600003E0481EB91E00E943E048DE891E00E944F
:101610003E0484E891E00E943E048BE791E00E9442
:101620003E0482E791E00E943E0489E691E00E9438
:101630003E048DE891E0909368018093670184E80F
:1016400091E090936601809365018091BB018F5F6B
:101650008093BB01AE898091BA018A1710F4A093E0
:10166000BA0129E02A9FD0011124AA56BE4F119633
:101670000D90BC91A02DBD83AC8314968D919C914F
:1016800015979F838E831496ED91FC911597CE014B
:1016900002969383828315969C938E931497EE897A
:1016A000E29FF0011124EA56FE4FFB87EA87808112
:1016B0008F5F80830F900FBE8091BC01882351F013
:1016C000E0913001F091310196898E89981710F4DC
:1016D0000E944C0481E004C0C6010E949B088FEF69
:1016E000DF91CF911F910F91FF90EF90DF90CF90FE
:1016F000BF90AF909F908F907F9008958091BC0194
:101700008111A3CFE0913001F091310196898E894A
:10171000891708F49ACFD0933101C093300195CF47
:101720000E94D2061895789484B5826084BD84B5F1
:10173000816084BD85B5826085BD85B5816085BDCC
:1017400080916E00816080936E0010928100809184
:10175000810082608093810080918100816080930C
:101760008100809180008160809380008091B10031
:1017700084608093B1008091B00081608093B0005C
:1017800080917A00846080937A0080917A008260F0
:1017900080937A0080917A00816080937A008091B2
:1017A0007A00806880937A001092C1002091050130
:1017B000309106018FEF98E0821B930B909302010A
:1017C000809301010E94460103E611E020E040EC15
:1017D00050E063E271E087E19AE00E94680A81309C
:1017E00009F0B3C00FB6F8940F9280915D0190910B
:1017F0005E01892B09F04FC082E591E00E943E0412
:1018000089E491E00E943E0482E591E090934801D2
:101810008093470189E491E09093460180934501CC
:1018200081E590E00E944A0AEC01009781F14F9611
:10183000998388838AE08B8F85E08C8F0FB6F8942C
:101840000F92888199812B8D4C8DBC01249F600D56
:10185000711D11247D836C831A8E9B838A83215092
:10186000330B429FB001439F700D1124860F971FC9
:101870009F838E838FEF8D8F8E8FCE0108960E946F
:101880003E04CE0141960E943E040F900FBED093BD
:101890005E01C0935D010F900FBE80915D0190913C
:1018A0005E01892B09F451C00BE511E023E045E509
:1018B00050E068E271E08CEA98E00E94680A8130AA
:1018C00009F043C0F8942FEF3FEF3093620120936B
:1018D00061018093BC011092600110925F01A89594
:1018E00088E190EC0FB6F894A895809360000FBE45
:1018F00090936000A0913001B0913101CD91CDBFA6
:10190000DD91DEBFFF91EF91DF91CF91BF91AF915C
:101910009F918F917F916F915F914F913F912F9107
:101920001F910F91FF90EF90DF90CF90BF90AF90FD
:101930009F908F907F906F905F904F903F902F90EF
:101940001F900F900FBE0F900895809100010E948C
:101950004601C0E0D0E02097F1F30E940000FBCFE9
:101960000F931F93CF93DF938230910510F482E0A1
:1019700090E0E091C001F091C10130E020E0B0E0E2
:10198000A0E0309799F42115310509F44AC0281BCD
:10199000390B24303105D8F58A819B816115710599
:1019A00089F1FB0193838283FE0111C04081518143
:1019B0000281138148175907E0F04817590799F435
:1019C000109761F012960C93129713961C9332960F
:1019D000CF01DF91CF911F910F9108950093C00126
:1019E0001093C101F4CF2115310551F0421753076F
:1019F00038F0A901DB019A01BD01DF01F801C1CF77
:101A0000EF01F9CF9093C1018093C001CDCFFE01CA
:101A1000E20FF31F81939193225031093983288378
:101A2000D7CF2091BE013091BF01232B41F42091EB
:101A30000301309104013093BF012093BE01209136
:101A40000101309102012115310541F42DB73EB756
:101A50004091050150910601241B350BE091BE0118
:101A6000F091BF01E217F307A0F42E1B3F0B2817DC
:101A7000390778F0AC014E5F5F4F2417350748F007
:101A80004E0F5F1F5093BF014093BE01819391930E
:101A90009FCFF0E0E0E09CCFCF93DF930097E9F099
:101AA000FC01329713821282A091C001B091C10152
:101AB000ED0130E020E01097A1F420813181820F08
:101AC000931F2091BE013091BF012817390709F0FB
:101AD00061C0F093BF01E093BE01DF91CF91089503
:101AE000EA01CE17DF07E8F54A815B819E014115C7
:101AF0005105B1F7E901FB83EA8349915991C40F7C
:101B0000D51FEC17FD0761F4808191810296840F47
:101B1000951FE90199838883828193819B838A83BE
:101B2000F0E0E0E012968D919C9113970097B9F543
:101B30002D913C911197CD010296820F931F209118
:101B4000BE013091BF012817390739F6309751F59A
:101B50001092C1011092C001B093BF01A093BE01C9
:101B6000BCCFD383C28340815181840F951FC81796
:101B7000D90761F44E5F5F4F88819981480F591FE3
:101B8000518340838A819B81938382832115310510
:101B900009F0B0CFF093C101E093C0019ECFFD01E9
:101BA000DC01C0CF13821282D7CFEE0FFF1F05904A
:101BB000F491E02D0994FB01DC0102C001900D922B
:101BC00041505040D8F70895DC0101C06D93415059
:0A1BD0005040E0F70895F894FFCFAD
:101BDA00030000C2018000526564204C656400590C
:101BEA00656C6C6F77204C656400426C7565204C9F
:101BFA0065640049444C4500546D72205376630075
:00000001FF
